:020000040800F2
:1000000000500020311100081511000817110008D8
:10001000191100081B1100081D1100080000000044
:100020000000000000000000000000001F11000898
:10003000211100080000000023110008251100080C
:100040007911000879110008791100087911000868
:100050007911000879110008791100087911000858
:100060007911000879110008791100087911000848
:100070007911000879110008791100087911000838
:100080007911000879110008791100087911000828
:100090007911000879110008791100087911000818
:1000A0007911000879110008791100087911000808
:1000B00079110008791100087911000879110008F8
:1000C00079110008791100087911000879110008E8
:1000D00079110008791100087911000879110008D8
:1000E000791100087911000879110008000000005A
:1000F0000000000000000000000000000000000000
:0C01000000000000000000005FF808F1A3
:10010C000348044B834202D0034B03B1184770479A
:10011C000C0000200C000020000000000548064BDD
:10012C001B1AD90F01EBA301491002D0034B03B1E9
:10013C00184770470C0000200C0000200000000045
:10014C0010B5064C237843B9FFF7DAFF044B13B113
:10015C000448AFF300800123237010BD0C00002075
:10016C0000000000A01E000808B5054B1BB1054996
:10017C000548AFF30080BDE80840FFF7CFBF00BFD4
:10018C000000000010000020A01E00082DE9F8431C
:10019C0081460F4615469846089E013B013A00F0F1
:1001AC0065FC06E0304600F041FC0134AC42F9D36A
:1001BC000137474501D24C46F8E7BDE8F88310B546
:1001CC000B461446024600F051FC204600F02EFC73
:1001DC0010BD00002DE9F04F87B0049002919246BB
:1001EC0001939DF844709DF848B017F0070318BFB1
:1001FC00012303EBD70303FB07F30393804600258E
:10020C002E4648E0109800F011FC0136F6B2B6FB11
:10021C00F7F307FB136313F0FF0337D00134E4B299
:10022C00072C24D8BBF1000F0DD12E4B1A2202FB48
:10023C0005334B449B78234113F0010FE2D0019816
:10024C0000F0F4FBE1E7274B1A2202FB05334B4489
:10025C009B78234113F0010F12D108F10108A8EB90
:10026C000A039F42DAD1029B01330293D04609F173
:10027C0001095FFA89F9039B994509D20024CFE75C
:10028C00019A02994046FFF79AFFE6E71E46EEE711
:10029C00DDF814A00135042D21D81A2305FB03F336
:1002AC00104AD25C9AF800309A42F3D10D4B1A22C4
:1002BC0002FB05335A789AF801309A42EAD107EBDF
:1002CC00080202997B18013B013A404600F0CEFB34
:1002DC004FF00009CDF814A0DDF810A0CBE707B063
:1002EC00BDE8F08FAC5200082DE9F04F87B00490B8
:1002FC000291924601939DF844709DF848B017F016
:10030C00070318BF012303EBD70303FB07F3039386
:10031C008046002426464AE0109800F087FB013600
:10032C00F6B2B6FBF7F307FB136313F0FF0339D0F8
:10033C000135EDB2072D26D8BBF1000F0ED104EB21
:10034C0004122F4B03EB42034B449B782B4113F0CD
:10035C00010FE1D0019800F069FBE0E704EB041217
:10036C00274B03EB42034B449B782B4113F0010FBB
:10037C0012D108F10108A8EB0A039F42D8D1029BC5
:10038C0001330293D04609F101095FFA89F9039B05
:10039C00994509D20025CDE7019A02994046FFF70D
:1003AC000EFFE6E71E46EEE7DDF814A00134042C40
:1003BC0022D804EB0413124A12F813209AF80030D6
:1003CC009A42F3D104EB04120D4B03EB42035A781F
:1003DC009AF801309A42E9D107EB080202997B188E
:1003EC00013B013A404600F041FB4FF00009CDF8CB
:1003FC0014A0DDF810A0CAE707B0BDE8F08F00BF6D
:10040C00305300082DE9F04F87B0049002919246CA
:10041C0001939DF844709DF848B017F0070318BF7E
:10042C00012303EBD70303FB07F30393804600255B
:10043C002E4648E0109800F0F9FA0136F6B2B6FBF9
:10044C00F7F307FB136313F0FF0337D00134E4B267
:10045C00072C24D8BBF1000F0DD12E4B4A2202FBE6
:10046C0005334B449B78234113F0010FE2D00198E4
:10047C0000F0DCFAE1E7274B4A2202FB05334B4440
:10048C009B78234113F0010F12D108F10108A8EB5E
:10049C000A039F42DAD1029B01330293D04609F141
:1004AC0001095FFA89F9039B994509D20024CFE72A
:1004BC00019A02994046FFF782FEE6E71E46EEE7F8
:1004CC00DDF814A00135042D21D84A2305FB03F3D4
:1004DC00104AD25C9AF800309A42F3D10D4B4A2262
:1004EC0002FB05335A789AF801309A42EAD107EBAD
:1004FC00080202997B18013B013A404600F0B6FA1B
:10050C004FF00009CDF814A0DDF810A0CBE707B030
:10051C00BDE8F08FDC5300082DE9F04F87B0049054
:10052C000291924601939DF844709DF848B017F0E3
:10053C00070318BF012303EBD70303FB07F3039354
:10054C008046002426464AE0109800F06FFA0136E7
:10055C00F6B2B6FBF7F307FB136313F0FF0339D0C6
:10056C000135EDB2072D26D8BBF1000F0ED104EBEF
:10057C0084122F4B03EB42034B449B782B4113F01B
:10058C00010FE1D0019800F051FAE0E704EB84127E
:10059C00274B03EB42034B449B782B4113F0010F89
:1005AC0012D108F10108A8EB0A039F42D8D1029B93
:1005BC0001330293D04609F101095FFA89F9039BD3
:1005CC00994509D20025CDE7019A02994046FFF7DB
:1005DC00F6FDE6E71E46EEE7DDF814A00134042C28
:1005EC0022D804EB8413124A12F813209AF8003024
:1005FC009A42F3D104EB84120D4B03EB42035A786D
:10060C009AF801309A42E9D107EB080202997B185B
:10061C00013B013A404600F029FA4FF00009CDF8B1
:10062C0014A0DDF810A0CAE707B0BDE8F08F00BF3A
:10063C00505500082DE9F04784B00546884614460D
:10064C001F46DDF830A09DF834609DF838900CE022
:10065C00CDF808900196CDF800A03B4622464146C5
:10066C002846FFF7B7FD023435442378002B55D0CC
:10067C00A6F10C02142A51D801A353F822F000BFA2
:10068C005D0600082907000829070008290700084B
:10069C00E1060008290700082907000829070008B7
:1006AC00290700082907000829070008290700085E
:1006BC00F90600082907000829070008290700087F
:1006CC00290700082907000829070008290700083E
:1006DC0011070008CDF808900196CDF800A03B4614
:1006EC00224641462846FFF7FFFDBCE7CDF80890AF
:1006FC000196CDF800A03B46224641462846FFF71E
:10070C0081FEB0E7CDF808900196CDF800A03B46ED
:10071C00224641462846FFF7FFFEA4E704B0BDE899
:10072C00F08700BF2DE9F04F87B004460491019388
:10073C009DF844B09DF848904FEA5B071BF00E0300
:10074C0018BF012303EB1B1303FB0BF30293203A9B
:10075C00D3B2059300EB5B020BEB0103013B013AB7
:10076C0000F084F926464FF0000A5546CDF80CB03F
:10077C00A3464CE0059B03EB4302454B03EB820382
:10078C0013F80A80002424E0424B059A03EB021371
:10079C0013F80A80F6E7059B03EB43023E4B03EB91
:1007AC00021313F80A80EDE73C4B059A03EB821316
:1007BC0013F80A80E6E7109800F038F90135EDB22D
:1007CC00B5FBF7F307FB135313F0FF035AD00134B7
:1007DC00E4B2072C19D8B9F1000F08D148FA04F388
:1007EC0013F0010FE7D0019800F020F9E6E748FA82
:1007FC0004F313F0010F3FD10136A6EB0B039F421C
:10080C00E5D1049B013304935E460AF1010A029B75
:10081C009A4539D2039B0C3B142B35D801A252F8C4
:10082C0023F000BF81070008950800089508000810
:10083C009508000895070008950800089508000819
:10084C009508000895080008950800089508000808
:10085C0095080008A30700089508000895080008EB
:10086C0095080008950800089508000895080008E8
:10087C0095080008B5070008019A04993046FFF75F
:10088C009EFCB9E71D46C0E707B0BDE8F08F00BF7E
:10089C00B81E00082C2300081C290008EC3A00089C
:1008AC002DE9F04784B00546884614461F46DDF80E
:1008BC0030A09DF834609DF838900CE0CDF808908D
:1008CC000196CDF800A03B4641462846FFF72AFF8B
:1008DC0005EB560501342278002AEFD104B0BDE8AF
:1008EC00F0870246012002E002FB00F019464B1E85
:1008FC00DBB20029F8D170472DE9F04F85B0804666
:10090C008B4617461D469DF840904FEA590A002623
:10091C0034461DE000230293CDF804900F9B009306
:10092C000E9B2022594604FB0A80FFF7FBFE0DE0CC
:10093C00303200230293CDF804900F9B00930E9B52
:10094C00D2B259460AFB0480FFF7ECFE0134E4B244
:10095C00AC421AD2291BC9B20139C9B20A20FFF71D
:10096C00C0FFB7FBF0F00A4AA2FB0032D20802EB40
:10097C008202A0EB4202D2B2002ED9D16B1E9C4255
:10098C00D6DA002AC6D00126D2E705B0BDE8F08F32
:10099C00CDCCCCCC70B584B04FF4E045009501269D
:1009AC00019603230393064C6946204600F088FC0D
:1009BC0032462946204600F095FD04B070BD00BFBC
:1009CC000008014038B5044600221021144800F0FC
:1009DC0089FD00250DE000228021114800F082FDE8
:1009EC00012220210E4800F07DFD6400E4B20135A7
:1009FC00EDB2072D0DD800222021094800F072FD20
:100A0C0014F0800FE7D001228021054800F06AFD28
:100A1C00E6E701221021024800F064FD38BD00BF5A
:100A2C000008014008B5FFF7CDFF08BD10B504461E
:100A3C00C0F30720FFF7C6FFE0B2FFF7C3FF10BDFE
:100A4C0038B50446084D00224FF40051284600F0FA
:100A5C0049FD2046FFF7B6FF01224FF4005128460E
:100A6C0000F040FD38BD00BF000C0140F8B5074652
:100A7C000D4616461C462A20FFF7E2FFB81CFFF76E
:100A8C00D5FFB01CFFF7D2FF2B20FFF7D9FF681C56
:100A9C00FFF7CCFF601CFFF7C9FF2C20FFF7D0FF3E
:100AAC00F8BD000010B5FFF775FF7F4C00224FF426
:100ABC008051204600F016FD642000F00FF9012251
:100ACC004FF48051204600F00DFD642000F006F933
:100ADC0001224FF48041204600F004FD642000F018
:100AEC00FDF81120FFF7ACFF782000F0F7F8B120EB
:100AFC00FFF7A6FF0520FFF795FF3C20FFF792FFBD
:100B0C003C20FFF78FFFB220FFF79AFF0520FFF77D
:100B1C0089FF3C20FFF786FF3C20FFF783FFB320C3
:100B2C00FFF78EFF0520FFF77DFF3C20FFF77AFFD4
:100B3C003C20FFF777FF0520FFF774FF3C20FFF701
:100B4C0071FF3C20FFF76EFFB420FFF779FF032005
:100B5C00FFF768FFC020FFF773FF2820FFF762FF45
:100B6C000820FFF75FFF0420FFF75CFFC120FFF7B1
:100B7C0067FFC020FFF756FFC220FFF761FF0D2073
:100B8C00FFF750FF0020FFF74DFFC320FFF758FF82
:100B9C008D20FFF747FF2A20FFF744FFC420FFF703
:100BAC004FFF8D20FFF73EFFEE20FFF73BFFC520E8
:100BBC00FFF746FF1A20FFF735FF3620FFF740FFFF
:100BCC00C020FFF72FFFE020FFF73AFF0420FFF7CC
:100BDC0029FF2220FFF726FF0720FFF723FF0A201B
:100BEC00FFF720FF2E20FFF71DFF3020FFF71AFF25
:100BFC002520FFF717FF2A20FFF714FF2820FFF707
:100C0C0011FF2620FFF70EFF2E20FFF70BFF3A20D7
:100C1C00FFF708FF0020FFF705FF0120FFF702FF99
:100C2C000320FFF7FFFE1320FFF7FCFEE120FFF788
:100C3C0007FF0420FFF7F6FE1620FFF7F3FE062051
:100C4C00FFF7F0FE0D20FFF7EDFE2D20FFF7EAFE7B
:100C5C002620FFF7E7FE2320FFF7E4FE2720FFF70F
:100C6C00E1FE2720FFF7DEFE2520FFF7DBFE2D201F
:100C7C00FFF7D8FE3B20FFF7D5FE0020FFF7D2FE92
:100C8C000120FFF7CFFE0420FFF7CCFE1320FFF767
:100C9C00C9FE3A20FFF7D4FE0520FFF7C3FE29203A
:100CAC00FFF7CEFE10BD00BF000C0140074B1B68C8
:100CBC00074AA2FB0323C3F34753064A13704FF4AE
:100CCC007A7202FB03F3044A1360704700000020A1
:100CDC0083DE1B432C000020280000200E4B1B68D9
:100CEC0003FB00F04FF0E023586100229A611A696F
:100CFC0042F001021A614FF0E0231B6903F001136B
:100D0C00012BF8D04FF0E0231A6922F001021A618E
:100D1C0000229A61704700BF2800002070B588B08F
:100D2C0000240494059406940794294B9A6942F084
:100D3C0010029A619A6902F010020092009A9A6964
:100D4C0042F020029A619A6902F020020192019A03
:100D5C009A6942F004029A619A6902F004020292C2
:100D6C00029A9A6942F008029A619B6903F008039F
:100D7C000393039B174D22464FF40071284600F055
:100D8C00B1FB4FF4604304930326059604A9124863
:100D9C0000F096FA49F60E530493059604A92846DA
:100DAC0000F08EFA4FF23F330493059604A90B48DA
:100DBC0000F086FA4FF40073049301230593069414
:100DCC000223079304A9284600F07AFA08B070BDF4
:100DDC00001002400008014000100140000C0140CE
:100DEC0072B6FEE708B50A480A4B03600A4B43602B
:100DFC0000238360C3604FF48042026143618361CE
:100E0C00C361036200F074FB00B908BDFFF7E8FF93
:100E1C003000002000540040A086010008B50A48AC
:100E2C000A4B03600A4B436000238360C3604FF49A
:100E3C008042026143618361C361036200F058FB2D
:100E4C0000B908BDFFF7CCFF84000020005800401B
:100E5C00A086010008B50C480C4B03604FF482735C
:100E6C00436000238360C360036143618361082294
:100E7C00C2610362436283620A23C36200F038FFDB
:100E8C0000B908BDFFF7ACFFD800002000300140CE
:100E9C0000B591B02822002106A800F0A9FF00237C
:100EAC0001930293039304930593012206924FF44A
:100EBC00803307930A9202220D920E934FF4E013A3
:100ECC000F9306A800F008FC80B90F2301930221B0
:100EDC000291002303934FF480620492059301A8BE
:100EEC0000F03AFE20B911B05DF804FBFFF778FF73
:100EFC00FFF776FF80B584B000F060F9FFF7C8FF0C
:100F0C00FFF70CFFFFF76EFFFFF788FFFFF7A2FF5D
:100F1C00FFF7CCFEFFF7C6FD4FF6FF730093A0233F
:100F2C00802200210846FFF731F9002502954FF089
:100F3C001808CDF804804FF6FF7400944FF47843F2
:100F4C00164A29462846FFF775FB0295102601968E
:100F5C0000944FF47843124A1E214046FFF7A0FC40
:100F6C00029601944FF478470097032380221E21A8
:100F7C004820FFF7C1FC0295019600943B46094AB4
:100F8C0032214046FFF78CFC029601940097032314
:100F9C00A02232214820FFF7AFFCC6E7DC5700083F
:100FAC00EC570008F457000882B00E4B9A6942F0D7
:100FBC0001029A619A6902F001020092009ADA69C0
:100FCC0042F08052DA61DB6903F080530193019B9C
:100FDC00054A536823F0E06343F00073536002B09A
:100FEC00704700BF001002400000014010B588B0EF
:100FFC00002304930593069307930368224A9342B4
:10100C0004D0224A93421FD008B010BD204CA369D3
:10101C0043F00803A361A36903F008030093009B4A
:10102C00C0230493122305930323079304A919489F
:10103C0000F046F9E36943F40013E361E36903F458
:10104C0000130193019BDFE7114CA36943F00803E4
:10105C00A361A36903F008030293029B4FF440635E
:10106C000493122305930323079304A9094800F062
:10107C0027F9E36943F48003E361E36903F4800334
:10108C000393039BC0E700BF00540040005800408E
:10109C0000100240000C014010B586B000230293F2
:1010AC000393049305930268154B9A4201D006B042
:1010BC0010BD03F560439A6942F480529A619A69B3
:1010CC0002F480520092009A9A6942F004029A61EA
:1010DC009B6903F004030193019B50230293094C79
:1010EC0002A9204600F0ECF8A023029302230393FC
:1010FC000323059302A9204600F0E2F8D7E700BFCE
:10110C000030014000080140FEE7FEE7FEE7FEE785
:10111C00FEE770477047704708B500F061F808BDEE
:10112C00704700000C480D490D4A002302E0D458CA
:10113C00C4500433C4188C42F9D30A4A0A4C002315
:10114C0001E013600432A242FBD3FFF7E9FF00F089
:10115C002BFEFFF7CFFE7047000000200C00002094
:10116C00305800080C00002034010020FEE700007D
:10117C0010B504460E4B1A784FF47A73B3FBF2F3A6
:10118C000C4A1068B0FBF3F000F086F868B90F2C2D
:10119C0001D901200AE0002221464FF0FF3000F077
:1011AC0043F8054B1C60002000E0012010BD00BF7F
:1011BC0004000020000000200800002008B5074AA9
:1011CC00136843F010031360032000F01BF80F208A
:1011DC00FFF7CEFFFFF7E8FE002008BD002002401D
:1011EC00034A1168034B1B780B441360704700BF14
:1011FC003001002004000020014B1868704700BF2C
:10120C0030010020074AD36823F4E0631B041B0C55
:10121C00000200F4E060034343F0BF6343F4003387
:10122C00D360704700ED00E000B5194BDB68C3F3E9
:10123C000223C3F1070CBCF1040F28BF4FF0040CC0
:10124C0003F1040EBEF1060F18D9033B4FF0FF3E1D
:10125C000EFA0CFC21EA0C0199400EFA03FE22EA6C
:10126C000E020A4300280BDB1201D2B200F16040DF
:10127C0000F5614080F800235DF804FB0023E5E7EE
:10128C0000F00F001201D2B2024B1A54F4E700BF67
:10129C0000ED00E014ED00E00138B0F1807F0BD2DE
:1012AC004FF0E0235861054AF02182F8231000200A
:1012BC00986107221A6170470120704700ED00E029
:1012CC0070B582B00024A446A6E0804DAB4210D08D
:1012DC0007D97F4DAB420CD005F58035AB4208D019
:1012EC0013E0A5F58015AB4203D005F57025AB4294
:1012FC0007D18B68002B58D0012B51D042610824A8
:10130C0003E0A5F58015AB42F3D0BEF1FF0F4ED82C
:10131C000646BEF1FF0F4CD84FEA8C0233680F25FE
:10132C00954023EA050304FA02F2134333604B6839
:10133C0013F0805F6ED0674B9A6942F001029A619C
:10134C009B6903F001030193019B4FEA9C02951CDE
:10135C00614B53F825600CF00305AD000F23AB4037
:10136C0026EA03065D4B984229D003F58063984228
:10137C0000F08E8003F58063984200F08B8003F5BB
:10138C008063984219D004231AE0CC68BDE7CC687E
:10139C000434BAE7CC680834B7E7CC680C34B4E74B
:1013AC0002610824B1E70024AFE70424ADE7061D71
:1013BC00AFE7ACF108029200B0E7032300E0002392
:1013CC00AB4033430232444D45F822304B6813F4A2
:1013DC00803F61D0424A136843EA0E0313604B68A6
:1013EC0013F4003F5ED03E4A536843EA0E03536049
:1013FC004B6813F4801F5BD0394A936843EA0E03A1
:10140C0093604B6813F4001F58D0354AD36843EAF5
:10141C000E03D3600CF1010C0B6833FA0CF253D0B1
:10142C00012202FA0CF203EA020E32EA0303F1D1B2
:10143C004B68122B3FF649AF122B3FF666AF01A556
:10144C0055F823F0FF12000897130008A1130008A9
:10145C00B31300081713000817130008171300081C
:10146C0017130008171300081713000817130008A8
:10147C001713000817130008171300081713000898
:10148C0017130008171300089B130008A713000874
:10149C00012395E7022393E7114A136823EA0E030D
:1014AC0013609CE70E4A536823EA0E0353609FE7D0
:1014BC000B4A936823EA0E039360A2E7084AD368A9
:1014CC0023EA0E03D360A5E702B070BD0000221022
:1014DC0000003110001002400000014000080140E3
:1014EC00000401400AB101617047090401617047B1
:1014FC00002800F0CC8070B5044690F83D30002BED
:10150C0077D0242384F83D302268136823F001033C
:10151C0013602268136843F4004313602268136855
:10152C0023F40043136000F0D3FB62685A4B9A42D9
:10153C0064D85A4B98428CBF00230123002B40F0F7
:10154C00A8805749A1FB00318B0C25686A6822F0F2
:10155C003F0242EA91426A6021680A6A22F03F0225
:10156C0066684D4DAE424FD8013313430B62216870
:10157C00CA6922F44F4222F0FF026568464B9D4235
:10158C004CD8431E6D00B3FBF5F3013340F6FC70F1
:10159C00034278D0C3F30B031A43CA6121680B686A
:1015AC0023F0C003E269206A024313430B602168F5
:1015BC008B6823F4034323F0FF032269E0680243A2
:1015CC0013438B602168CB6823F0FF036269A06929
:1015DC0002431343CB602268136843F0010313608A
:1015EC0000202064202384F83D30206384F83E00E2
:1015FC0070BD80F83C30FFF7F9FC82E7294B98422C
:10160C008CBF0023012399E74FF4967505FB03F378
:10161C00254DA5FB03539B090133A6E7A668BEB96C
:10162C00431E05EB450CB3FBFCF30133C3F30B0377
:10163C00B3FA83F35B0943BBC6B9431E05EB4505FF
:10164C00B3FBF5F30133C3F30B0343F40043A3E7FC
:10165C00431E05EB850C0CEB8C0CB3FBFCF301333C
:10166C00C3F30B03B3FA83F35B09E4E7431E05EB07
:10167C00850505EB8505B3FBF5F30133C3F30B03CC
:10168C0043F4404388E7042386E7012384E70120E1
:10169C0070470120ACE700BFA08601007F841E00CC
:1016AC0083DE1B43FF083D00D34D621082B0084B14
:1016BC001B68084AA2FB03235B0A00FB03F301939C
:1016CC0000BF019B5A1E0192002BF9D102B070474A
:1016DC0000000020D34D6210002800F0F18170B59D
:1016EC0082B00446036813F0010F2CD0994B5B6851
:1016FC0003F00C03042B1DD0964B5B6803F00C031A
:10170C00082B12D06368B3F5803F41D0002B55D124
:10171C0003F1804303F504331A6822F480321A6013
:10172C001A6822F480221A6037E08A4B5B6813F443
:10173C00803FE7D0874B1B6813F4003F03D06368EE
:10174C00002B00F0BF81236813F0020F75D0814B82
:10175C005B6813F00C0F5FD07E4B5B6803F00C03DF
:10176C00082B54D02369002B00F08A807A4B01227D
:10177C001A60FFF741FD0546764B1B6813F0020F0C
:10178C0075D1FFF739FD401B0228F5D903209EE1E6
:10179C00704A136843F480331360636843B3FFF7F4
:1017AC002BFD05466B4B1B6813F4003FCBD1FFF7A9
:1017BC0023FD401B6428F5D9032088E1B3F5A02F45
:1017CC0009D0644B1A6822F480321A601A6822F429
:1017DC0080221A60E1E703F18043A3F53C331A68D9
:1017EC0042F480221A601A6842F480321A60D4E7FC
:1017FC00FFF702FD0546574B1B6813F4003FA2D0C0
:10180C00FFF7FAFC401B6428F5D903205FE1514B2C
:10181C005B6813F4803FA5D14E4B1B6813F0020F8D
:10182C0003D02369012B40F04F814A4A136823F0FF
:10183C00F803616943EAC1031360236813F0080FCE
:10184C0033D0A369002B5CD0434B0122C3F8802416
:10185C00FFF7D2FC05463F4B5B6A13F0020F21D118
:10186C00FFF7CAFC401B0228F5D903202FE1394AA7
:10187C00136823F0F803616943EAC1031360DCE7E2
:10188C00354B00221A60FFF7B7FC0546314B1B683D
:10189C0013F0020FD1D0FFF7AFFC401B0228F5D993
:1018AC00032014E10120FFF701FF236813F0040F5C
:1018BC0000F09680274BDB6913F0805F34D1254B09
:1018CC00DA6942F08052DA61DB6903F080530193EC
:1018DC00019B0125214B1B6813F4807F26D0E36804
:1018EC00012B3DD0002B53D103F1804303F504337E
:1018FC001A6A22F001021A621A6A22F004021A62AF
:10190C0033E0154B0022C3F88024FFF775FC054625
:10191C00104B5B6A13F0020FC7D0FFF76DFC401B36
:10192C000228F5D90320D2E00025D3E70B4A13682F
:10193C0043F480731360FFF75FFC0646074B1B688C
:10194C0013F4807FCBD1FFF757FC801B6428F5D9AB
:10195C000320BCE000100240000042420070004036
:10196C005F4A136A43F001031362E36833B3FFF772
:10197C0043FC06465A4B1B6A13F0020F2FD1FFF79C
:10198C003BFC801B41F288339842F3D903209EE044
:10199C00052B09D0524B1A6A22F001021A621A6AFC
:1019AC0022F004021A62E0E74D4B1A6A42F004027C
:1019BC001A621A6A42F001021A62D6E7FFF71CFC9F
:1019CC000646474B1B6A13F0020F08D0FFF714FCB6
:1019DC00801B41F288339842F3D9032077E0E5B9B4
:1019EC00E369002B72D03E4A526802F00C02082ABE
:1019FC0056D0022B17D03B4B00221A66FFF7FCFB8C
:101A0C000446374B1B6813F0007F47D0FFF7F4FBFD
:101A1C00001B0228F5D9032059E0314AD36923F081
:101A2C008053D361DCE72F4B00221A66FFF7E4FBEF
:101A3C0005462B4B1B6813F0007F06D0FFF7DCFB31
:101A4C00401B0228F5D9032041E0236AB3F5803FFF
:101A5C001AD023494B6823F47413226A606A024338
:101A6C0013434B601F4B01221A66FFF7C5FB04465C
:101A7C001B4B1B6813F0007F0ED1FFF7BDFB001B47
:101A8C000228F5D9032022E0154A536823F40033C9
:101A9C00A1680B435360DCE7002018E0002016E03F
:101AAC00012B16D00E4B5B6803F48031226A9142F5
:101ABC0011D103F47013626A93420ED1002006E038
:101ACC0001207047012002E0012000E0002002B05C
:101ADC0070BD0120FBE70120F9E70120F7E700BF0B
:101AEC00001002400000424286B0174B0FCB0DF1A4
:101AFC00180C0CE90F0040F20123ADF80430134B25
:101B0C005B6803F00C02082A02D0114806B070473B
:101B1C00C3F3834218326A4412F8100C13F4803F5A
:101B2C000DD00A4B5B68C3F3404318336B4413F876
:101B3C00143C074A02FB00F0B0FBF3F0E6E7054B60
:101B4C0003FB00F0E2E700BF14580008001002404D
:101B5C0000127A0000093D00002800F0A08070B54A
:101B6C000D460446524B1B6803F007038B420BD205
:101B7C004F4A136823F007030B431360136803F0F9
:101B8C0007038B4240F08D80236813F0020F17D0AF
:101B9C0013F0040F04D0474A536843F4E0635360D6
:101BAC00236813F0080F04D0424A536843F460537F
:101BBC005360404A536823F0F003A1680B43536011
:101BCC00236813F0010F31D06368012B20D0022B56
:101BDC0025D0384A126812F0020F64D035494A6891
:101BEC0022F0030213434B60FFF706FB0646314B12
:101BFC005B6803F00C036268B3EB820F16D0FFF73F
:101C0C00FBFA801B41F288339842F0D9032045E05F
:101C1C00284A126812F4003FE0D101203EE0254A28
:101C2C00126812F0007FD9D1012037E0204B1B68DD
:101C3C0003F00703AB420AD91D4A136823F00703CC
:101C4C002B431360136803F00703AB422DD12368B9
:101C5C0013F0040F06D0174A536823F4E063E168CD
:101C6C000B435360236813F0080F07D0114A5368D5
:101C7C0023F46053216943EAC1035360FFF734FF37
:101C8C000C4B5B68C3F303130B4AD35CD8400B4B70
:101C9C0018600B4B1868FFF76BFA002070BD012021
:101CAC0070470120FAE70120F8E70120F6E700BFB2
:101CBC000020024000100240FC57000800000020E9
:101CCC0008000020014B1868704700BF000000207E
:101CDC0008B5FFF7F7FF044B5B68C3F30223034A15
:101CEC00D35CD84008BD00BF001002400C5800085F
:101CFC00002856D010B50446436A33B94368B3F58F
:101D0C00827F05D00023C36102E00023036143619D
:101D1C000023A36294F85130002B3CD0022384F8AA
:101D2C0051302268136823F040031360636803F496
:101D3C008273A26802F404421343E26802F4006264
:101D4C001343226902F002021343626902F001029A
:101D5C001343A26902F400721343E26902F03802E1
:101D6C001343226A02F080021343A26A02F4005267
:101D7C00216813430B60638B226803F004035360E8
:101D8C002268D36923F40063D361002060650123CA
:101D9C0084F8513010BD84F850302046FFF77CF9A0
:101DAC00BCE701207047000070B50D4E0D4D761B41
:101DBC00B61006D0002455F8043B01349847A642CF
:101DCC00F9D1094E094D00F065F8761BB61006D016
:101DDC00002455F8043B01349847A642F9D170BD54
:101DEC0028580008285800082C58000828580008C3
:101DFC00830730B548D0541E002A3FD00346CAB2E0
:101E0C0001E0013C3AD303F8012B9D07F9D1032CD7
:101E1C002DD9CDB245EA05250F2C45EA054536D915
:101E2C00A4F1100222F00F0C03F1200EE6444FEA4D
:101E3C00121C03F1100242E9045542E9025510321A
:101E4C007245F8D10CF1010214F00C0F03EB0212E5
:101E5C0004F00F0C13D0ACF1040323F00303043390
:101E6C00134442F8045B9342FBD10CF003042CB1F5
:101E7C00C9B21C4403F8011B9C42FBD130BD644623
:101E8C001346002CF4D1F9E703461446BFE71A4673
:101E9C00A446E0E7F8B500BFF8BC08BC9E46704706
:0C1EAC00F8B500BFF8BC08BC9E467047AB
:101EB8000000000000000000000000000000040412
:101EC800040404000004000014140A0000000000C8
:101ED8000000000000000A0A1F0A0A1F0A0A000080
:101EE80000040E1505060C14150E0400000012154A
:101EF8000D152E2C2A1200000000040A0A361515AA
:101F08002916000002020100000000000000000085
:101F18001008080404040404080810000204040853
:101F2800080808080404020000000004150E0E1535
:101F38000400000000000008083E08080000000037
:101F48000000000000000000020201000000000084
:101F5800003F00000000000000000000000000003A
:101F6800000200000020101008080404020201000A
:101F780000000E1111111111110E000000000406CD
:101F880004040404040E000000000E1111080402E9
:101F9800011F000000000E11100C1010110E00009F
:101FA8000000080C0C0A091F081C000000001F0193
:101FB800010F1110110E000000000C12010D131179
:101FC800110E000000001E1008080404040400009C
:101FD80000000E11110E1111110E000000000E115B
:101FE8001119161009060000000000000400000086
:101FF80000040000000000000004000000040400C9
:10200800000010080402020408100000000000008C
:102018003F003F0000000000000002040810100804
:102028000402000000000E1111080404000400005E
:1020380000001C22292D2D1D221C00000000040474
:102048000C0A0A1E1233000000000F12120E1212A0
:10205800120F000000001E1101010101110E000005
:1020680000000F1212121212120F000000001F12AD
:102078000A0E0A02121F000000001F120A0E0A02AE
:102088000207000000001C1201013911120C0000A7
:1020980000003312121E12121233000000001F0437
:1020A80004040404041F000000003E08080808088F
:1020B80008080907000037120A060A12123700003A
:1020C8000000070202020202223F000000003B1B40
:1020D8001B1B15151535000000003B1216161A1AA1
:1020E8001217000000000E1111111111110E00003D
:1020F80000000F12120E02020207000000000E116B
:1021080011111117190E180000000F12120E0A12E1
:102118001237000000001E1101060810110F000000
:1021280000001F1504040404040E0000000033120C
:1021380012121212120C000000003312120A0A0CBA
:10214800040400000000151515150E0A0A0A0000FF
:1021580000001B0A0A04040A0A1B000000001B0AEC
:102168000A0A0404040E000000001F0908040402FF
:10217800121F00001C0404040404040404041C00CA
:102188000002020404040808081010000E080808D9
:102198000808080808080E00040A000000000000EB
:1021A8000000000000000000000000000000003FE8
:1021B8000204000000000000000000000000000011
:1021C800000C121C123C000000030202020E121244
:1021D800120E000000000000001C1202120C000089
:1021E80000181010101C1212123C00000000000011
:1021F800000C121E021C000000182404041E040413
:10220800041E000000000000003C120C021C221CEE
:1022180000030202020E121212370000000404002A
:1022280000060404040E000000080800000C08085A
:102238000808080700030202021A0A060A13000027
:102248000007040404040404041F00000000000044
:10225800000F15151515000000000000000F1212E0
:102268001237000000000000000C1212120C0000CF
:1022780000000000000F1212120E020700000000FA
:10228800001C1212121C103800000000001B06026D
:102298000207000000000000001E020C101E0000D3
:1022A80000000004041E0404041C000000000000D8
:1022B800001B1212123C000000000000001B0A0A5A
:1022C80004040000000000000015150E0A0A0000B2
:1022D80000000000001B0A040A1B000000000000A8
:1022E800003312120C08040300000000001E08044A
:1022F800041E000018080808080C08080808180038
:102308000808080808080808080808080604040453
:102318000408040404040600160900000000000074
:1023280000000000000000000000000000000000A5
:10233800000000000000000808080808080800005D
:102348001818000000486C2412000000000000006B
:10235800000000000000002424247F1212127F12C3
:10236800121200000000081C2A2A0A0C1828282A21
:102378002A1C080800000022251515152A5854544F
:10238800542200000000000C1212120A76252911AE
:10239800916E000000060604030000000000000023
:1023A8000000000000402010100808080808081065
:1023B8001020400000020408081010101010100827
:1023C800080402000000000008086B1C1C6B0808C9
:1023D8000000000000000000080808087F0808083E
:1023E80008000000000000000000000000000000DD
:1023F800060604030000000000000000FE000000C4
:1024080000000000000000000000000000000000C4
:102418000606000000008040402020101008080434
:102428000402020000000018244242424242424292
:1024380024180000000000080E080808080808080A
:10244800083E00000000003C4242422020100804E0
:10245800427E00000000003C4242201820404042DA
:10246800221C0000000000203028242422227E2084
:10247800207800000000007E0202021A2640404236
:10248800221C0000000000382402021A26424242A0
:10249800241800000000007E2222101008080808F6
:1024A800080800000000003C42424224182442422E
:1024B800423C000000000018244242426458404058
:1024C800241C000000000000000018180000000094
:1024D80018180000000000000000000800000000BC
:1024E8000008080400000040201008040204081036
:1024F800204000000000000000007F0000007F0076
:10250800000000000000000204081020402010080D
:10251800040200000000003C424246402010100027
:10252800181800000000001C225A555555552D4218
:10253800221C00000000000808181414243C224241
:1025480042E700000000001F2222221E22424242CF
:10255800221F00000000007C4242010101010142EB
:10256800221C00000000001F224242424242424216
:10257800221F00000000003F4212121E12120242E7
:10258800423F00000000003F4212121E12120202D7
:10259800020700000000003C2222010101712122F3
:1025A800221C0000000000E7424242427E424242B2
:1025B80042E700000000003E08080808080808086C
:1025C800083E00000000007C1010101010101010C1
:1025D8001010110F0000007722120A0E0A121222A0
:1025E8002277000000000007020202020202020233
:1025F800427F000000000077363636362A2A2A2A1B
:102608002A6B0000000000E346464A4A52525262D2
:10261800624700000000001C224141414141414104
:10262800221C00000000003F424242423E020202D9
:10263800020700000000001C2241414141414D5366
:10264800321C60000000003F4242423E1212222229
:1026580042C700000000007C4242020418204042A9
:10266800423E00000000007F4908080808080808E2
:10267800081C0000000000E7424242424242424237
:10268800423C0000000000E74242222424141418AF
:10269800080800000000006B494949495555362291
:1026A80022220000000000E74224241818182424DD
:1026B80042E70000000000772222141408080808E6
:1026C800081C00000000007E2120101008040442AD
:1026D800423F0000007808080808080808080808A9
:1026E80008087800000002020404080808101020F6
:1026F80020204040001E1010101010101010101054
:1027080010101E0000384400000000000000000007
:1027180000000000000000000000000000000000B1
:10272800000000FF00060800000000000000000094
:1027380000000000000000000000003C4278444215
:1027480042FC0000000000030202021A2642424234
:10275800261A0000000000000000003844020202AF
:102768004438000000000060404040784442424243
:1027780064D80000000000000000003C427E020215
:10278800423C0000000000F08808087E080808089D
:10279800083E0000000000000000007C22221C020D
:1027A8003C42423C000000030202023A46424242D6
:1027B80042E700000000000C0C00000E08080808A2
:1027C800083E0000000000303000003820202020A3
:1027D8002020221E0000000302020272120A1612B2
:1027E800227700000000000E0808080808080808FA
:1027F800083E0000000000000000007F92929292C4
:1028080092B70000000000000000003B4642424230
:1028180042E70000000000000000003C4242424243
:10282800423C0000000000000000001B264242421B
:10283800221E0207000000000000007844424242C5
:10284800447840E000000000000000774C040404D5
:10285800041F0000000000000000007C42023C4011
:10286800423E0000000000000008083E0808080872
:1028780008300000000000000000006342424242AD
:1028880062DC000000000000000000E7422424147D
:102898000808000000000000000000EB49495555F9
:1028A80022220000000000000000007624181818FA
:1028B800246E000000000000000000E742242414F9
:1028C80018080807000000000000007E2210080811
:1028D800447E000000C0202020202010202020203E
:1028E8002020C00010101010101010101010101020
:1028F8001010101000060808080808100808080832
:10290800080806000C32C2000000000000000000A9
:1029180000000000000000000000000000000000AF
:10292800000000000000000000000000000000009F
:10293800000000000000000000000000000000008F
:1029480000000000000000000000000060006000BF
:10295800600060006000600060004000200020000F
:10296800200000000000000060006000600000001F
:1029780000000000000000006006600630039801B7
:102988008800440000000000000000000000000073
:10299800000000000000000000000000000000002F
:1029A80000000000000000000000000010021002FB
:1029B80010021002FE07FE070802080108010801BC
:1029C8000801FE07FE0704010401040104010000D8
:1029D8000000000000000000000040004000F0017E
:1029E80058034C03CC034C0058007000E000C001B1
:1029F800C00140034C035C034C034801F000400055
:102A08004000000000000000000000000E010A0164
:102A1800910091009100510051003A00AE03A002CC
:102A28005004500448044804480484028403000005
:102A380000000000000000000000000038006C00EA
:102A48006C006C006C006C002C0098071C011A01CB
:102A5800330133016301E300C308C6093C070000E2
:102A680000000000000000000C001C001000100016
:102A78000800040000000000000000000000000042
:102A8800000000000000000000000000000000003E
:102A980000000000000000000004000200018000A7
:102AA800800040004000200020002000200020007E
:102AB800200020004000400080008000000100024B
:102AC80000040000000000000200040008001000DC
:102AD800100020002000400040004000400040005E
:102AE80040004000200020001000100008000400F2
:102AF80002000000000000000000000000000000CC
:102B08004000C0004000460C4E0FD001F0015E0F9F
:102B1800460C40004000400000000000000000009B
:102B2800000000000000000000000000000000009D
:102B3800000040004000400040004000FE0F400000
:102B4800400040004000400000000000000000007D
:102B5800000000000000000000000000000000006D
:102B6800000000000000000000000000000000005D
:102B780000000000000000000C001C001000100005
:102B88000800040000000000000000000000000031
:102B9800000000000000000000000000FE07000028
:102BA800000000000000000000000000000000001D
:102BB800000000000000000000000000000000000D
:102BC80000000000000000000000000000000000FD
:102BD80000000000000000001C001C001C00000099
:102BE80000000000000000000004000600020003CE
:102BF80000010001800080004000400060002000CB
:102C0800200010001000080008000C000400060056
:102C18000200000000000000000000000000F000BA
:102C280098010C030C0306060606060606060606A9
:102C38000606060606060C030C039801F0000000C1
:102C4800000000000000000000000000000040003C
:102C58007C00600060006000600060006000600050
:102C6800600060006000600060006000FC0300001D
:102C78000000000000000000000000000000F80054
:102C88008401020306030603000300018001C0005B
:102C9800600020001000080204020602FE03000083
:102CA80000000000000000000000000000007800A4
:102CB800C6008601860180018001C0007000800185
:102CC800000100030003060306038601F800000064
:102CD800000000000000000000000000000080016B
:102CE8008001C001A001A001900188018801840130
:102CF8008201FE0F8001800180018001E007000051
:102D08000000000000000000000000000000FC03BC
:102D180004000400040004000400F4008C0104030F
:102D2800000300030603060382018401F800000083
:102D38000000000000000000000000000000E001AA
:102D480018030C030C0004000600E60116030E0627
:102D580006060606060604060C021803F000000024
:102D68000000000000000000000000000000F8075C
:102D78000C060402040100010001800080004000EC
:102D880040004000600060006000600060000000DB
:102D98000000000000000000000000000000F80132
:102DA8000C030606060606060C021C03F000C80102
:102DB8000C0306060606060606060C03F0010000CC
:102DC8000000000000000000000000000000F0000B
:102DD8000C010C03060206060606060606078C0604
:102DE80078060006000300030C018C01780000003F
:102DF80000000000000000000000000000000000CB
:102E08000000000000000000E000E000E00000001A
:102E18000000000000000000E000E000E00000000A
:102E2800000000000000000000000000000000009A
:102E380000000000000000006000600000000000CA
:102E4800000000000000000000006000600040007A
:102E58002000200000000000000000000004000224
:102E68000001800040002000100008000400080055
:102E78001000200040008000000100020004000053
:102E8800000000000000000000000000000000003A
:102E98000000000000000000FE0700000000000025
:102EA800FE07000000000000000000000000000015
:102EB80000000000000000000000000004000800FE
:102EC8001000200040008000000100020004000201
:102ED80000018000400020001000080004000000ED
:102EE8000000000000000000000000000000E003F7
:102EF8001806040C040C0C0C0C0C00078001400094
:102F08004000400000000000E000E000E000000099
:102F1800000000000000000000000000E0001803AE
:102F28000C02CC0564056605A605B604B604B6040D
:102F3800B604B602E4010C040C021803F000000009
:102F48000000000000000000000000000000600019
:102F580060005000D00090009000880088010801AF
:102F6800F801040304030402020202060F0F000022
:102F78000000000000000000000000000000FE004B
:102F88008C030C030C030C030C038C01FC000C03D6
:102F98000C020C060C060C060C060C03FE010000C5
:102FA8000000000000000000000000000000E00336
:102FB80018030C060C0404040600060006000600AC
:102FC8000600060006040C040C021803F0000000BA
:102FD80000000000000000000000000000007F006A
:102FE8008C010C030C030C060C060C060C060C06D4
:102FF8000C060C060C060C030C038C017F00000069
:103008000000000000000000000000000000FF03B6
:10301800060306040604060086008600FE008600F5
:10302800860086000600060406040602FF03000068
:103038000000000000000000000000000000FF0386
:10304800060306040604060086008600FE008600C5
:103058008600860006000600060006001F00000025
:103068000000000000000000000000000000F00068
:1030780018010C020C0204020600060006000600F5
:10308800C60F060306030C030C031803F000000028
:1030980000000000000000000000000000000F0F0A
:1030A800060606060606060606060606FE070606BF
:1030B8000606060606060606060606060F0F0000A2
:1030C8000000000000000000000000000000FC03F9
:1030D80060006000600060006000600060006000E8
:1030E800600060006000600060006000FC03000099
:1030F8000000000000000000000000000000F807C9
:10310800C000C000C000C000C000C000C000C000B7
:10311800C000C000C000C000C000C000C000C600A1
:1031280066003C0000000000000000000000CF0323
:103138008601C60046002600160036002E006E00E6
:103148004600C60086008601060106038F070000B8
:1031580000000000000000000000000000001F0048
:103168000600060006000600060006000600060027
:10317800060006000600060406040602FF03000017
:103188000000000000000000000000000000070729
:10319800860386038E038E034E034E034A035A03A7
:1031A8005A033A033203320332031203870700003B
:1031B80000000000000000000000000000008E0F6A
:1031C8000C021C021C02340234026402640244022F
:1031D800C402840284038403040304031F0200005E
:1031E8000000000000000000000000000000F000E7
:1031F80098010C030C0206060606060606060606D5
:103208000606060606060C020C039801F0000000EC
:103218000000000000000000000000000000FF00A7
:103228000603060606060606060606068603FE00CA
:103238000600060006000600060006001F00000043
:103248000000000000000000000000000000F00086
:1032580098010C030C020606060606060606060674
:103268000606060676064C02CC039801F000800795
:103278000003000000000000000000000000FF0143
:10328800060306060606060606060603FE004600B0
:10329800C600860086010603060306060F0E000018
:1032A8000000000000000000000000000000F8021C
:1032B8000C030602060206000E003C00F800E003BC
:1032C800800300070206020606060C03F001000050
:1032D8000000000000000000000000000000FE07E1
:1032E80062046108610860006000600060006000BE
:1032F800600060006000600060006000F80100008D
:1033080000000000000000000000000000001E0790
:103318000C020C020C020C020C020C020C020C0235
:103328000C020C020C020C020C021801F000000046
:1033380000000000000000000000000000000F076F
:103348000602040104010C010C01880088009800A1
:10335800980050005000700030002000200000004D
:103368000000000000000000000000000000F70E50
:10337800620442044604460464026402E402E4026D
:103388009C029C019801980188018800880000002F
:1033980000000000000000000000000000009E0780
:1033A8000C01080118019000B000600020006000C6
:1033B8006000D00090008801080104038E07000017
:1033C80000000000000000000000000000000F0FD7
:1033D800060404020C0208011801B800B0007000CD
:1033E800600060006000600060006000F80100009C
:1033F8000000000000000000000000000000FC07C2
:103408000C020603020180018000400040002000F9
:1034180020001000180008040C040402FE03000039
:103428000000000000000000E00320002000200051
:103438002000200020002000200020002000200084
:103448002000200020002000200020002000200074
:10345800E003000000000000000000000400040079
:103468000800080010001000100020002000400094
:103478004000C0008000800000010001000200023E
:1034880000020004000000007C00400040004000F2
:103498004000400040004000400040004000400024
:1034A8004000400040004000400040004000400014
:1034B8007C0000000000600090000801000000008F
:1034C80000000000000000000000000000000000F4
:1034D80000000000000000000000000000000000E4
:1034E80000000000000000000000000000000000D4
:1034F80000000000000000000000000000000000C4
:1035080000000000000000000000000000000000B3
:103518000000FF0F0000000018006000000000001D
:103528000000000000000000000000000000000093
:103538000000000000000000000000000000000083
:103548000000000000000000000000000000000073
:103558000000000000000000F0010C030C03000351
:10356800E0031C030E03060306038E0B7C0E00000B
:1035780000000000000000000000000008000E002D
:103588000C000C000C000C00CC013C031C060C06C3
:103598000C060C060C060C060C021C03E4010000C9
:1035A8000000000000000000000000000000000013
:1035B8000000000000000000F0008C018C01860172
:1035C80006000600060006020C020C01F0000000CE
:1035D8000000000000000000000000000002C0031E
:1035E800000300030003000378038C030C030603A5
:1035F800060306030603060304038C07780100008C
:1036080000000000000000000000000000000000B2
:103618000000000000000000E001180308020C068A
:103628000C06FC070C000C0018041802E00100004E
:103638000000000000000000000000000000C003BF
:103648006006300630003000FE01300030003000E7
:10365800300030003000300030003000FC01000045
:103668000000000000000000000000000000000052
:103678000000000000000000F007D8068C018C0153
:103688008C019801F8000C00FC00CC03060306032B
:103698008E03F800000000000000000008000E0083
:1036A8000C000C000C000C00EC011C030C030C03B8
:1036B8000C030C030C030C030C030C039E07000003
:1036C8000000000000000000000000000000600092
:1036D80060000000000040007C00600060006000A6
:1036E800600060006000600060006000FC03000093
:1036F8000000000000000000000000000000C00101
:10370800C001000000000001F0018001800180017B
:103718008001800180018001800180018001800199
:10372800CC007C00000000000000000008000E0033
:103738000C000C000C000C008C038C008C004C005E
:103748006C005C008C008C010C010C039E070000CF
:1037580000000000000000000000000040007C00A5
:103768006000600060006000600060006000600051
:10377800600060006000600060006000FC03000002
:103788000000000000000000000000000000000031
:1037980000000000000000003707EE066606660617
:1037A800660666066606660666066606FF0F00007B
:1037B8000000000000000000000000000000000001
:1037C8000000000000000000EE011C030C030C03C5
:1037D8000C030C030C030C030C030C039E070000E2
:1037E80000000000000000000000000000000000D1
:1037F8000000000000000000F00098010C0306061D
:1038080006060606060606060C030C03F000000072
:1038180000000000000000000000000000000000A0
:103828000000000000000000EE011C030C060C065E
:103838000C060C060C060C060C031C03EC010C0011
:103848000C003E0000000000000000000000000026
:10385800000000000000000078028C030C0306033F
:10386800060306030603060304038C037803000318
:103878000003C00700000000000000000000000076
:1038880000000000000000009F03580638061800DA
:10389800180018001800180018001800FF00000091
:1038A8000000000000000000000000000000000010
:1038B8000000000000000000F0031C030C020C02D2
:1038C8003800F000C003040304038C03FC0100006B
:1038D80000000000000000000000000000000000E0
:1038E8002000200030003000FE01300030003000A1
:1038F800300030003000300030023002E0010000BB
:1039080000000000000000000000000000000000AF
:1039180000000000000008028E030C030C030C03D7
:103928000C030C030C030C030C039C077801000028
:10393800000000000000000000000000000000007F
:1039480000000000000000001E070C02080108012A
:1039580018019000B000B000600060002000000076
:10396800000000000000000000000000000000004F
:103978000000000000000000F70E62044604640224
:103988006402EC029C01980198019801080000006B
:10399800000000000000000000000000000000001F
:1039A8000000000000000000BC0718011001B00072
:1039B80060006000E0009000080108039E07000016
:1039C80000000000000000000000000000000000EF
:1039D80000000000000000009E070801080108011F
:1039E80090009000B000600060006000200020009F
:1039F80024001C000000000000000000000000007F
:103A08000000000000000000FC018401C400440024
:103A1800600020003000180208020C03FC010000BE
:103A2800000000000000000000038000800080000B
:103A3800800080008000800080004000200040005E
:103A4800800080008000800080008000800080006E
:103A580000030000400040004000400040004000DB
:103A6800400040004000400040004000400040004E
:103A7800400040004000400040004000400040003E
:103A880040004000000000000C0010001000100072
:103A9800100010001000100010002000400020004E
:103AA800100010001000100010001000100010008E
:103AB8000C00000000001C002204C2048003000067
:103AC80000000000000000000000000000000000EE
:103AD80000000000000000000000000000000000DE
:103AE80000000000000000000000000000000000CE
:103AF80000000000000000000000000000000000BE
:103B080000000000000000000000000000000000AD
:103B1800000000000000000000000000000000009D
:103B28000000000000000000000000000000C001CC
:103B3800C001C001C001C001C001C00180008000F7
:103B480080008000800080008000000000000000ED
:103B580000008001C003C0038001000000000000D5
:103B680000000000000000000000E01CE01CF01E47
:103B7800700E3807180308018400000000000000D8
:103B8800000000000000000000000000000000002D
:103B9800000000000000000000000000000000001D
:103BA800000000000000000000000000000000000D
:103BB80020102010201020102010FE7FFE7F1008FB
:103BC800100810081008100810081008FE7FFE7F63
:103BD80008040804080408040804000000000000A1
:103BE80000000000000000000000000000010001CB
:103BF800C0076019103118311839183938017001A7
:103C0800E001C0038007000F001D003900311C319E
:103C18001C310C310C11180DE007000100010001E6
:103C2800000000000000000000000000000000008C
:103C38001C1036186308630C630463046302630290
:103C48006301361D9C378022806340634063206394
:103C58002063306310221836081C000000000000A2
:103C6800000000000000000000000000000000004C
:103C7800F00098018C018C018C018C018C00CC0027
:103C88007800183E1C083608320863046304C3042D
:103C9800C303834306438E26781C000000000000FF
:103CA800000000000000000000001C003C003C0078
:103CB8003000300010000C0006000000000000007A
:103CC80000000000000000000000000000000000EC
:103CD80000000000000000000000000000000000DC
:103CE800000000000000000000000040002000105C
:103CF8000008000C00040006000300030003800114
:103D08008001800180018001800180018001000321
:103D18000003000300060006000C00080010002045
:103D2800004000000000000000000200040008003D
:103D38001000300020006000C000C000C0008001FA
:103D48008001800180018001800180018001C00024
:103D5800C000C000600060003000100008000400CF
:103D68000200000000000000000000000000000049
:103D78000000000000018003800300011C713C79F1
:103D8800783DC0070001C007783D3C791C710001EF
:103D98008003800380010000000000000000000094
:103DA800000000000000000000000000000000000B
:103DB80000000000000000010001000100010001F6
:103DC80000010001FC7F0001000100010001000169
:103DD80000010001000000000000000000000000D9
:103DE80000000000000000000000000000000000CB
:103DF80000000000000000000000000000000000BB
:103E080000000000000000000000000000000000AA
:103E1800000000001C003C003C0030003000100096
:103E28000C00060000000000000000000000000078
:103E3800000000000000000000000000000000007A
:103E480000000000FE7F00000000000000000000ED
:103E5800000000000000000000000000000000005A
:103E6800000000000000000000000000000000004A
:103E7800000000000000000000000000000000003A
:103E8800000000000000000000000000000000002A
:103E9800000018003C003C00180000000000000072
:103EA800000000000000000000000040006000204A
:103EB8000030001000180008000C00040006000282
:103EC8000003000180018000C00040006000200065
:103ED80030001000180008000C0004000600020062
:103EE80000000000000000000000000000000000CA
:103EF800C007600C30181830183018200C600C609F
:103F08000C600C600C600C600C600C600C6018207D
:103F1800183018303018600CC0070000000000008E
:103F28000000000000000000000000000000000089
:103F380000018001F8018001800180018001800179
:103F48008001800180018001800180018001800161
:103F5800800180018001C003F81F000000000000FC
:103F68000000000000000000000000000000000049
:103F7800E007101C0818043004300C300C300030F6
:103F88000018000800040002000180004000202002
:103F9800102008200430FC1FFC1F00000000000057
:103FA8000000000000000000000000000000000009
:103FB800E003180E0C0C0C180C180C180018000C48
:103FC8000006C003000E00180010003000300C304E
:103FD8000C300C100C18180CE00300000000000056
:103FE80000000000000000000000000000000000C9
:103FF800000C000E000E000F800E800E400E600EAA
:10400800200E100E100E080E040E040EFE7F000E79
:10401800000E000E000E000E000EC07F0000000013
:104028000000000000000000000000000000000088
:10403800F03FF03F10001000100008000800C8070B
:10404800280C1818081000300030003000300C30F0
:104058000C3004180418080CF003000000000000DD
:104068000000000000000000000000000000000048
:10407800800FC010203010301800180008000C0005
:104088008C0F6C183C301C600C600C600C600C6071
:104098001860182030306018C007000000000000C9
:1040A8000000000000000000000000000000000008
:1040B800F83FF83F1C100C08040804040004000230
:1040C8000002000100010001800080008000C000A3
:1040D800C000C000C000C000C00000000000000018
:1040E80000000000000000000000000000000000C8
:1040F800E007300C18180C300C300C301C30381815
:104108007008E007B007180E0C1C06380630063099
:10411800063006300C18180CE00300000000000000
:104128000000000000000000000000000000000087
:10413800E00318040C080C18061006300630063088
:10414800063006380C3C1836F031003000180018DC
:1041580000180C0C0C060C03F00100000000000015
:104168000000000000000000000000000000000047
:1041780000000000000000000000000000008001B6
:10418800C003C00380010000000000000000000020
:1041980000008001C003C00380010000000000008F
:1041A8000000000000000000000000000000000007
:1041B8000000000000000000000000000000C00037
:1041C800C000000000000000000000000000000027
:1041D800000000000000C000C00080008000400017
:1041E8004000000000000000000000000000002067
:1041F800001000080004000600038001C0006000F1
:10420800300018000C00180030006000C000800169
:104218000003000600040008001000200000000051
:104228000000000000000000000000000000000086
:104238000000000000000000000000000000FE7FF9
:1042480000000000000000000000FE7F00000000E9
:104258000000000000000000000000000000000056
:104268000000000000000000000000000000040042
:104278000800100020006000C00080010003000654
:10428800000C001800300018000C00060003800124
:10429800C0006000200010000800040000000000BA
:1042A8000000000000000000000000000000C0073F
:1042B8003018083008600C601C601C601C600030FE
:1042C800001C0006000180008000800080000000C3
:1042D80000008001C003C00380010000000000004E
:1042E80000000000000000000000000000000000C6
:1042F800C0076018103018200C2F8C4D864CC64C07
:10430800C64C664C66446644662666266615CC1C12
:104318000C40082018303018C007000000000000CA
:104328000000000000000000000000000000000184
:10433800C001C001C0014001600320032003200325
:104348003006100610061006F80F080C080C080CAA
:104358000C0C0418041806181F7C0000000000004C
:104368000000000000000000000000000000000045
:10437800FE07181C1838183018301830183018185C
:10438800180CF807181818301820186018601860EA
:104398001860186018301818FE0F000000000000A0
:1043A8000000000000000000000000000000000005
:1043B800C0276038103018200C400C40040006005C
:1043C80006000600060006000600060006000C406F
:1043D8000C400C2018303018C00700000000000006
:1043E80000000000000000000000000000000000C5
:1043F800FE03180E18181830183018301860186096
:104408001860186018601860186018601860183014
:10441800183018101818180EFE03000000000000CD
:104428000000000000000000000000000000000084
:10443800FE3F18301820186018401800180818088F
:10444800180CF80F180C180818081800180018008D
:104458001840184018201830FE3F000000000000E7
:104468000000000000000000000000000000000044
:10447800FE7F1870184018C01880180018101810FF
:104488001818F81F18181810181018001800180015
:1044980018001800180018007E0000000000000036
:1044A8000000000000000000000000000000000004
:1044B800C013701C101018100C200C2004000600EB
:1044C800060006000600060006FC063006300C3022
:1044D8000C30183018303008C00700000000000009
:1044E80000000000000000000000000000000000C4
:1044F8003F7E0C180C180C180C180C180C180C18FB
:104508000C180C18FC1F0C180C180C180C180C188C
:104518000C180C180C180C183F7E00000000000046
:104528000000000000000000000000000000000083
:10453800F81F8001800180018001800180018001D5
:10454800800180018001800180018001800180015B
:104558008001800180018001F81F00000000000038
:104568000000000000000000000000000000000043
:10457800E07F0006000600060006000600060006AA
:1045880000060006000600060006000600060006F3
:104598000006000600060006000600060E060E03CA
:1045A8008E01FC0000000000000000000000000078
:1045B8007E7C1818180818041806180218019801A3
:1045C8009801D801B803380318071806180E180CF4
:1045D800181C1818183018307EFC00000000000065
:1045E80000000000000000000000000000000000C3
:1045F8007E0018001800180018001800180018008D
:1046080018001800180018001800180018001800E2
:104618001840184018201830FE3F00000000000025
:104628000000000000000000000000000000000082
:104638001FF81C381C381C381C3C343434343434CF
:10464800343674326432643264326431C431C43111
:10465800C431C430C43084309FFC00000000000026
:104668000000000000000000000000000000000042
:104678001F7C1C103C103410341074106410E410AB
:10468800C410C41184118413041304170416041EDF
:10469800041C041C041C04181F180000000000005F
:1046A8000000000000000000000000000000000002
:1046B800C003300C181808100C300C300660066067
:1046C80006600660066006600660066006600C20EC
:1046D8000C3008101818300CC0030000000000004F
:1046E80000000000000000000000000000000000C2
:1046F800FE0F1818183018601860186018601860D5
:1047080018301818F80F18001800180018001800AA
:1047180018001800180018007E00000000000000B3
:104728000000000000000000000000000000000081
:10473800C003300C18180C100C300C2006600660F2
:104748000660066006600660066006600660E46152
:104758002C331C321816300EC007004C007C003871
:104768000000000000000000000000000000000041
:10477800FE07181C18381830183018301830181858
:10478800180CF80798031803180718061806180EC7
:10479800180C180C181C18187E780000000000006F
:1047A8000000000000000000000000000000000001
:1047B800E027303818300C200C200C000C001800B2
:1047C8007800E003800F001E00380070006004606D
:1047D8000460086018303818C80F00000000000096
:1047E80000000000000000000000000000000000C1
:1047F800FC3F8C21846182418241800180018001DB
:104808008001800180018001800180018001800198
:104818008001800180018001E007000000000000A5
:104828000000000000000000000000000000000080
:104838003F7C0C100C100C100C100C100C100C10F1
:104848000C100C100C100C100C100C100C100C1080
:104858000C100C1008083804E003000000000000E9
:104868000000000000000000000000000000000040
:104878003EF8182018201820301030103010301052
:10488800600860086008E00CC004C004C00480032D
:104898008003800380030001000100000000000085
:1048A8000000000000000000000000000000000000
:1048B800DFF38661862186218C210C218C238C13C1
:1048C8008C138C134C1358125816580E380E380E79
:1048D800380E300C10041004100400000000000012
:1048E80000000000000000000000000000000000C0
:1048F8007E3E180838083004300470026002E00177
:10490800C001C00180018003400340072006200643
:10491800100C100C081808183E7C0000000000005D
:10492800000000000000000000000000000000007F
:104938007E7C1C10181018083008300C70046004B5
:104948006002C002C002C0018001800180018001B4
:104958008001800180018001E00700000000000064
:10496800000000000000000000000000000000003F
:10497800F83F18180818040C040E00060007000376
:1049880080038001C001C000E000600070003000BA
:10499800382018201C100C18FE1F00000000000012
:1049A80000000000000000000000C03F4000400080
:1049B80040004000400040004000400040004000EF
:1049C80040004000400040004000400040004000DF
:1049D8004000400040004000400040004000C03F10
:1049E80000000000000000000000000000000800B7
:1049F800180018001000300020006000600040001F
:104A0800C000800080018001000100030002000650
:104A180000060004000C0008001800180010003000
:104A280000200000000000000000FC03000200025B
:104A3800000200020002000200020002000200025E
:104A4800000200020002000200020002000200024E
:104A58000002000200020002000200020002FC0341
:104A6800000000000000000000008007C0062008C9
:104A7800101000000000000000000000000000000E
:104A8800000000000000000000000000000000001E
:104A9800000000000000000000000000000000000E
:104AA80000000000000000000000000000000000FE
:104AB80000000000000000000000000000000000EE
:104AC80000000000000000000000000000000000DE
:104AD80000000000000000000000000000000000CE
:104AE8000000FFFF0000000000007800C000000187
:104AF80000000000000000000000000000000000AE
:104B0800000000000000000000000000000000009D
:104B1800000000000000000000000000000000008D
:104B2800000000000000000000000000000000007D
:104B38000000000000000000000000000000F0037A
:104B480018060C0C0C0C000C800F700C1C0C0C0CB8
:104B5800060C060C064C0C4FF8380000000000004C
:104B6800000000000000000000000000000010002D
:104B78001E00180018001800180018001800180F58
:104B8800D8183830386018601860186018601860D5
:104B98001860182038307818C80700000000000096
:104BA80000000000000000000000000000000000FD
:104BB8000000000000000000000000000000C00726
:104BC800700C181818180C180C000C000C000C00AD
:104BD8000C20182018103008C00700000000000042
:104BE80000000000000000000000000000000010AD
:104BF800001E001800180018001800180018E01B04
:104C0800301C181818180C180C180C180C180C183C
:104C18000C180818181C307AE00900000000000081
:104C2800000000000000000000000000000000007C
:104C38000000000000000000000000000000C007A5
:104C4800300C181808100C300C30FC3F0C000C000D
:104C58000C00182018107018C00700000000000091
:104C6800000000000000000000000000000000003C
:104C7800003E80C380C0C0C0C000C000C000FC1F90
:104C8800C000C000C000C000C000C000C000C0001C
:104C9800C000C000C000C000F80F00000000000005
:104CA80000000000000000000000000000000000FC
:104CB8000000000000000000000000000000C077B5
:104CC800306C10181818181818181018300CF0072D
:104CD80018001800F00FF03F08700C600C600C60B2
:104CE8003838E00F0000000000000000000010004D
:104CF8001E00180018001800180018001800980F57
:104D0800D818383018301830183018301830183093
:104D180018301830183018307EFC000000000000F1
:104D2800000000000000000000000000000000007B
:104D38008003800380030000000000000001F801E8
:104D48008001800180018001800180018001800153
:104D58008001800180018001F81F00000000000030
:104D6800000000000000000000000000000000003B
:104D78000038003800380000000000000010801FD4
:104D8800001800180018001800180018001800185B
:104D98000018001800180018001800180018180C3F
:104DA8001806F003000000000000000000001000DA
:104DB8001E00180018001800180018001800183EE7
:104DC800180C1806180318019801D8013803180799
:104DD8001806180C181C18187E7C0000000000002B
:104DE80000000000000000000000000000000001BA
:104DF800F80180018001800180018001800180012B
:104E08008001800180018001800180018001800192
:104E18008001800180018001F81F0000000000006F
:104E2800000000000000000000000000000000007A
:104E38000000000000000000000000000800EE1C58
:104E48009C338C318C318C318C318C318C318C3160
:104E58008C318C318C318C31DE7B000000000000FD
:104E6800000000000000000000000000000000003A
:104E780000000000000000000000000010001E0FED
:104E8800D818383018301830183018301830183012
:104E980018301830183018307EFC00000000000070
:104EA80000000000000000000000000000000000FA
:104EB8000000000000000000000000000000C00723
:104EC800701C103018300C600C600C600C600C60AA
:104ED8000C60183018303018C007000000000000BF
:104EE80000000000000000000000000000000000BA
:104EF80000000000000000000000000010009E0FED
:104F08005818383018201860186018601860186031
:104F180018601830383078189807180018001800EA
:104F280018007E00000000000000000000000000E3
:104F38000000000000000000000000000000C02386
:104F4800303C183818300C300C300C300C300C3029
:104F58000C3008301838303CE03300300030003076
:104F6800003000FC0000000000000000000000000D
:104F780000000000000000000000000060007E3C0F
:104F880060666061E000E000600060006000600052
:104F98006000600060006000FE0700000000000084
:104FA80000000000000000000000000000000000F9
:104FB8000000000000000000000000000000E027E2
:104FC80030381830182018007000E003800F001CDB
:104FD800043004300C301C18EC0F000000000000F6
:104FE80000000000000000000000000000000000B9
:104FF80000000000800080008000C000E000FC1F6E
:10500800C000C000C000C000C000C000C000C00098
:10501800C000C020C0208011000F00000000000068
:105028000000000000000000000000000000000078
:1050380000000000000000000000000010201E3CDE
:105048001830183018301830183018301830183018
:1050580018301830183830F4E01300000000000051
:105068000000000000000000000000000000000038
:1050780000000000000000000000000000007E3C6E
:1050880018181808380830043004700260026002EA
:10509800E001C001C001C000800000000000000065
:1050A80000000000000000000000000000000000F8
:1050B8000000000000000000000000000000DFF712
:1050C8008E630C238C238C23981398135816581628
:1050D800700E700E700E2004200400000000000006
:1050E80000000000000000000000000000000000B8
:1050F8000000000000000000000000000000FC3E6E
:1051080070087004E004C002C001800380034007F7
:105118006006200C100C18183E7E000000000000ED
:105128000000000000000000000000000000000077
:1051380000000000000000000000000000007E7C6D
:105148001818180830083008300460046004C002D9
:10515800C002C002800180018001800080008000C0
:105168004C003C00000000000000000000000000AF
:105178000000000000000000000000000000FC1F0C
:105188000C0C040E0406000380038001C000E0003C
:105198007020302038301C18FC1F00000000000070
:1051A80000000000000000000000003000080004BB
:1051B80000040004000400040004000400040004C7
:1051C800000400028001000200040004000400043E
:1051D80000040004000400040004000400040008A3
:1051E8000030000000010001000100010001000181
:1051F800000100010001000100010001000100019F
:10520800000100010001000100010001000100018E
:10521800000100010001000100010001000100017E
:10522800000100010000000000000C001000200038
:105238002000200020002000200020002000200066
:1052480020004000800140002000200020002000B5
:105258002000200020002000200020002000100056
:105268000C00000000003800C400864002610022E3
:10527800001C00000000000000000000000000000A
:105288000000000000000000000000000000000016
:105298000000000000000000000000000000000006
:1052A80000000000D6D0200020002000FE032202CB
:1052B80022022202FE032202200020002000BEB0AB
:1052C800FC010401FC010401FC012000FF070401AA
:1052D800FC01200024013202D4B0FE070204FA04C3
:1052E80002040204FE05520452044A05860502041B
:1052F800FE07B5E710001000FF0111011101FF01C1
:1053080011011101FF0111041004E007D7D30000B7
:10531800FC018000400020002000FF072000200042
:105328002000200038000000D6D0800080008000D7
:105338008000FC1F84108410841084108410FC1FCB
:1053480084108000800080008000BEB0F80F08083C
:10535800F80F0808F80F8000FF7F0000F80F080812
:105368000808F80F80008410A2204000D4B0000084
:10537800FE3F0220F22702200220FA2F22212221BA
:105388002221122912290A2E0220FE3F0220B5E707
:10539800800080008000FC1F841084108410FC1F93
:1053A800841084108410FC1F845080408040007F4B
:1053B800D7D30000FE1F000800040002800180000F
:1053C800FF7F800080008000800080008000A000B7
:1053D80040000000D6D000000000000000180000C7
:1053E8000800000800000800080818F8FF1F18083F
:1053F8001818081818081818081818081818081875
:10540800F8FF1F080808000800000800000800004E
:105418000800001800001800001800000000BEB0C6
:10542800000000000000400006C0FF07400006C062
:10543800FF07400006C0FF07400802003000FEFFDB
:105448003F000000C0FF07C00002C00002C0000209
:10545800C0FF0380100080110160100E3010180C7E
:105468001E30001C00000000D4B000000000000046
:10547800080030F8FF1F08001008C010083F100887
:105488000010080010080013C8FF10082210082296
:10549800100822100822100821120821148860160A
:1054A80048C013280010080010F8FF1F080010005B
:1054B8000000B5E700000000000000180000080028
:1054C800000800000800F0FF0F100804100804107E
:1054D8000804100804F0FF07100804100804100856
:1054E80004100804F0FF0710080000081000081056
:1054F80000082000183000F01F000000D7D300007B
:1055080000000000000004F0FF0F0000060000018A
:1055180000C000002800001800001800001830FE25
:10552800FF7F00180000180000180000180000187D
:1055380000001800001800001800001800001F00E4
:10554800000C000000000000D6D0000000000000A1
:105558000000008000000080010000800100008041
:10556800010000800100008001001080010CF0FFA4
:10557800FF0F308001043080010430800104308046
:10558800010430800104308001043080010430803F
:105598000104F0FFFF07308001043080010400801F
:1055A80001000080010000800100008001000080EF
:1055B80001000080010000800100008001000080DF
:1055C80001000080000000000000BEB000000000E4
:1055D80000000000000000000001800100FFFF0142
:1055E800000380010003800100FFFF010003800128
:1055F8000003800100FFFF0100818100000003001B
:105608000000031CFCFFFF3F000040000003C00136
:1056180000FFFF010003C0000003C0000003C0003A
:1056280000FFFF000001410000040100000E7100AE
:1056380000078101800101076000010E1898011C14
:1056480004E0011800C0000000000000D4B0000011
:1056580000000000000000000008F0FFFF1F3000FD
:10566800000C3000000C3000100C30FE3F0C3004F1
:10567800000C3000000C3000000C3000000C300032
:10568800C00CF0FFFF0D3030060E3030060C301025
:10569800060C3010060C3010060C3018860C30182A
:1056A800860C3008060D300C860D3006EE0F3002E1
:1056B800FC0D3001000CF000000C3000000CF0FF75
:1056C800FF0F3000000C1000000400000000B5E7D8
:1056D800000000000000000000C0000000C0010041
:1056E80000C0000000C0000000C0000000C00000B2
:1056F800E0FFFF0360C0000360C0000360C0000358
:1057080060C0000360C0000360C00003E0FFFF0347
:1057180060C0000360C0000360C0000360C00003F5
:1057280060C00003E0FFFF0360C0000160C000002C
:1057380000C0000800C0001000C0001000C0001821
:1057480000C001380080FF1F0000000000000000BA
:10575800D7D3000000000000000000000000000097
:105768000003C0FFFF07000080070000C000000022
:1057780060000000180000000C000080030000809A
:10578800030000800100008001080080011CFCFF6C
:10579800FF3F0080010000800100008001000080C0
:1057A80001000080010000800100008001000080ED
:1057B80001000080010000800100008001000080DD
:1057C800010000FC010000E00000004000000000B3
:1057D80000000000E4B8ADE699AFE59BADE794B5ED
:1057E800E5AD90004C43445F573A00004C43445F9A
:1057F800483A000000000000000000000102030415
:10580800060708090000000001020304020304055A
:10581800060708090A0B0C0D0E0F101000000000F7
:0458280075010008FE
:04582C004D01000822
:0C5830000024F400010000001000000043
:0400000508001131AD
:00000001FF
