:020000040800F2
:1000000000500020151100086D0300086F03000860
:100010007103000873030008750300080000000066
:10002000000000000000000000000000770300084E
:1000300079030008000000007B0300087D0300082E
:100040005D1100085D1100085D1100085D110008D8
:100050005D1100085D1100085D1100085D110008C8
:100060005D1100085D1100085D1100085D110008B8
:100070005D1100085D1100085D1100085D110008A8
:100080005D1100085D1100085D1100085D11000898
:100090005D1100085D1100085D1100085D11000888
:1000A0005D1100085D1100085D1100085D11000878
:1000B0005D1100085D1100085D1100085D11000868
:1000C0005D1100085D1100085D1100085D11000858
:1000D0005D1100085D1100085D1100085D11000848
:1000E0005D1100085D1100085D11000800000000AE
:1000F0000000000000000000000000000000000000
:0C01000000000000000000005FF808F1A3
:10010C000348044B834202D0034B03B1184770479A
:10011C000C0000200C000020000000000548064BDD
:10012C001B1AD90F01EBA301491002D0034B03B1E9
:10013C00184770470C0000200C0000200000000045
:10014C0010B5064C237843B9FFF7DAFF044B13B113
:10015C000448AFF300800123237010BD0C00002075
:10016C0000000000B811000808B5054B1BB105498B
:10017C000548AFF30080BDE80840FFF7CFBF00BFD4
:10018C000000000010000020B811000810B588B065
:10019C000023049305930693079303F1804303F51F
:1001AC0004339A6942F010029A619A6902F01002C3
:1001BC000092009A9A6942F020029A619A6902F0C0
:1001CC0020020192019A9A6942F004029A619A699A
:1001DC0002F004020292029A9A6942F008029A61B1
:1001EC009B6903F008030393039B4FF46043049350
:1001FC000324059404A90A4800F0BAFD49F61E73BD
:10020C000493059404A9074800F0B2FD4FF23F3364
:10021C000493059404A9044800F0AAFD08B010BD8D
:10022C000010014000080140000C014072B6FEE7CE
:10023C0008B50A480A4B03600A4B436000238360ED
:10024C00C3604FF48042026143618361C361036206
:10025C0000F044F900B908BDFFF7E8FF28000020C2
:10026C0000540040A086010008B50A480A4B036000
:10027C000A4B436000238360C3604FF480420261E9
:10028C0043618361C361036200F028F900B908BDC2
:10029C00FFF7CCFF7C00002000580040A086010036
:1002AC0008B50D480D4B03604FF482734360002377
:1002BC008360C360036143614FF400728261082262
:1002CC00C2610362436283620A23C36200F0C0FE10
:1002DC0000B908BDFFF7AAFFD00000200030014094
:1002EC0000B591B02822002106A800F057FF00238A
:1002FC0001930293039304930593012206924FF406
:10030C00803307930A9202220D920E934FF4E0135E
:10031C000F9306A800F020FA80B90F230193022155
:10032C000291002303934FF480620492059301A879
:10033C0000F052FC20B911B05DF804FBFFF776FF1A
:10034C00FFF774FF08B500F0CDF9FFF7C9FFFFF711
:10035C001DFFFFF76DFFFFF787FFFFF7A1FFFEE71C
:10036C00FEE7FEE7FEE7FEE7FEE7704770477047E3
:10037C0008B500F0C9F908BD82B00E4B9A6942F07D
:10038C0001029A619A6902F001020092009ADA69FC
:10039C0042F08052DA61DB6903F080530193019BD8
:1003AC00054A536823F0E06343F00073536002B0D6
:1003BC00704700BF001002400000014010B588B02B
:1003CC00002304930593069307930368224A9342F0
:1003DC0004D0224A93421FD008B010BD204CA36910
:1003EC0043F00803A361A36903F008030093009B87
:1003FC00C0230493122305930323079304A91948DC
:10040C0000F0B6FCE36943F40013E361E36903F421
:10041C0000130193019BDFE7114CA36943F0080320
:10042C00A361A36903F008030293029B4FF440639A
:10043C000493122305930323079304A9094800F09E
:10044C0097FCE36943F48003E361E36903F48003FD
:10045C000393039BC0E700BF0054004000580040CA
:10046C0000100240000C014010B586B0002302932E
:10047C000393049305930268164B9A4201D006B07D
:10048C0010BD03F560439A6942F480529A619A69EF
:10049C0002F480520092009A9A6942F004029A6126
:1004AC009B6903F004030193019BA0230293022395
:1004BC00039303230593084C02A9204600F058FC33
:1004CC004023029300230393049302A9204600F0D7
:1004DC004FFCD4E70030014000080140002800F038
:1004EC00CC8070B5044690F83D30002B77D0242397
:1004FC0084F83D302268136823F0010313602268EE
:10050C00136843F4004313602268136823F4004318
:10051C00136000F01DFC62685A4B9A4264D85A4B27
:10052C0098428CBF00230123002B40F0A880574930
:10053C00A1FB00318B0C25686A6822F03F0242EA6D
:10054C0091426A6021680A6A22F03F0266684D4D4A
:10055C00AE424FD8013313430B622168CA6922F4AF
:10056C004F4222F0FF026568464B9D424CD8431E19
:10057C006D00B3FBF5F3013340F6FC70034278D009
:10058C00C3F30B031A43CA6121680B6823F0C00341
:10059C00E269206A024313430B6021688B6823F4E1
:1005AC00034323F0FF032269E068024313438B608B
:1005BC002168CB6823F0FF036269A06902431343EF
:1005CC00CB602268136843F00103136000202064A1
:1005DC00202384F83D30206384F83E0070BD80F801
:1005EC003C30FFF7EBFE82E7294B98428CBF00238F
:1005FC00012399E74FF4967505FB03F3254DA5FBF5
:10060C0003539B090133A6E7A668BEB9431E05EB4D
:10061C00450CB3FBFCF30133C3F30B03B3FA83F3C5
:10062C005B0943BBC6B9431E05EB4505B3FBF5F3AC
:10063C000133C3F30B0343F40043A3E7431E05EB61
:10064C00850C0CEB8C0CB3FBFCF30133C3F30B03E9
:10065C00B3FA83F35B09E4E7431E05EB850505EB71
:10066C008505B3FBF5F30133C3F30B0343F44043AC
:10067C0088E7042386E7012384E7012070470120E3
:10068C00ACE700BFA08601007F841E0083DE1B4305
:10069C00FF083D00D34D621010B504460E4B1A787E
:1006AC004FF47A73B3FBF2F30C4A1068B0FBF3F01F
:1006BC0000F0BAFC68B90F2C01D901200AE0002225
:1006CC0021464FF0FF3000F077FC054B1C600020FA
:1006DC0000E0012010BD00BF000000200800002039
:1006EC000400002008B5074A136843F01003136098
:1006FC00032000F04FFC0F20FFF7CEFFFFF73CFE6E
:10070C00002008BD00200240034A1168034B1B78EF
:10071C000B441360704700BF28010020000000202C
:10072C00014B1868704700BF2801002082B0084BAD
:10073C001B68084AA2FB03235B0A00FB03F301932B
:10074C0000BF019B5A1E0192002BF9D102B07047D9
:10075C0008000020D34D6210002800F0F18170B524
:10076C0082B00446036813F0010F2CD0994B5B68E0
:10077C0003F00C03042B1DD0964B5B6803F00C03A9
:10078C00082B12D06368B3F5803F41D0002B55D1B4
:10079C0003F1804303F504331A6822F480321A60A3
:1007AC001A6822F480221A6037E08A4B5B6813F4D3
:1007BC00803FE7D0874B1B6813F4003F03D063687E
:1007CC00002B00F0BF81236813F0020F75D0814B12
:1007DC005B6813F00C0F5FD07E4B5B6803F00C036F
:1007EC00082B54D02369002B00F08A807A4B01220D
:1007FC001A60FFF795FF0546764B1B6813F0020F46
:10080C0075D1FFF78DFF401B0228F5D903209EE11F
:10081C00704A136843F480331360636843B3FFF783
:10082C007FFF05466B4B1B6813F4003FCBD1FFF7E2
:10083C0077FF401B6428F5D9032088E1B3F5A02F7E
:10084C0009D0644B1A6822F480321A601A6822F4B8
:10085C0080221A60E1E703F18043A3F53C331A6868
:10086C0042F480221A601A6842F480321A60D4E78B
:10087C00FFF756FF0546574B1B6813F4003FA2D0F9
:10088C00FFF74EFF401B6428F5D903205FE1514B65
:10089C005B6813F4803FA5D14E4B1B6813F0020F1D
:1008AC0003D02369012B40F04F814A4A136823F08F
:1008BC00F803616943EAC1031360236813F0080F5E
:1008CC0033D0A369002B5CD0434B0122C3F88024A6
:1008DC00FFF726FF05463F4B5B6A13F0020F21D151
:1008EC00FFF71EFF401B0228F5D903202FE1394AE0
:1008FC00136823F0F803616943EAC1031360DCE772
:10090C00354B00221A60FFF70BFF0546314B1B6875
:10091C0013F0020FD1D0FFF703FF401B0228F5D9CB
:10092C00032014E10120FFF701FF236813F0040FEB
:10093C0000F09680274BDB6913F0805F34D1254B98
:10094C00DA6942F08052DA61DB6903F0805301937B
:10095C00019B0125214B1B6813F4807F26D0E36893
:10096C00012B3DD0002B53D103F1804303F504330D
:10097C001A6A22F001021A621A6A22F004021A623E
:10098C0033E0154B0022C3F88024FFF7C9FE05465F
:10099C00104B5B6A13F0020FC7D0FFF7C1FE401B70
:1009AC000228F5D90320D2E00025D3E70B4A1368BF
:1009BC0043F480731360FFF7B3FE0646074B1B68C6
:1009CC0013F4807FCBD1FFF7ABFE801B6428F5D9E5
:1009DC000320BCE0001002400000424200700040C6
:1009EC005F4A136A43F001031362E36833B3FFF702
:1009FC0097FE06465A4B1B6A13F0020F2FD1FFF7D6
:100A0C008FFE801B41F288339842F3D903209EE07D
:100A1C00052B09D0524B1A6A22F001021A621A6A8B
:100A2C0022F004021A62E0E74D4B1A6A42F004020B
:100A3C001A621A6A42F001021A62D6E7FFF770FED8
:100A4C000646474B1B6A13F0020F08D0FFF768FEEF
:100A5C00801B41F288339842F3D9032077E0E5B943
:100A6C00E369002B72D03E4A526802F00C02082A4D
:100A7C0056D0022B17D03B4B00221A66FFF750FEC4
:100A8C000446374B1B6813F0007F47D0FFF748FE36
:100A9C00001B0228F5D9032059E0314AD36923F011
:100AAC008053D361DCE72F4B00221A66FFF738FE28
:100ABC0005462B4B1B6813F0007F06D0FFF730FE6A
:100ACC00401B0228F5D9032041E0236AB3F5803F8F
:100ADC001AD023494B6823F47413226A606A0243C8
:100AEC0013434B601F4B01221A66FFF719FE044695
:100AFC001B4B1B6813F0007F0ED1FFF711FE001B80
:100B0C000228F5D9032022E0154A536823F4003358
:100B1C00A1680B435360DCE7002018E0002016E0CE
:100B2C00012B16D00E4B5B6803F48031226A914284
:100B3C0011D103F47013626A93420ED1002006E0C7
:100B4C0001207047012002E0012000E0002002B0EB
:100B5C0070BD0120FBE70120F9E70120F7E700BF9A
:100B6C00001002400000424286B0174B0FCB0DF133
:100B7C00180C0CE90F0040F20123ADF80430134BB4
:100B8C005B6803F00C02082A02D0114806B07047CB
:100B9C00C3F3834218326A4412F8100C13F4803FEA
:100BAC000DD00A4B5B68C3F3404318336B4413F806
:100BBC00143C074A02FB00F0B0FBF3F0E6E7054BF0
:100BCC0003FB00F0E2E700BFD01100080010024068
:100BDC0000127A0000093D00002800F0A08070B5DA
:100BEC000D460446524B1B6803F007038B420BD295
:100BFC004F4A136823F007030B431360136803F089
:100C0C0007038B4240F08D80236813F0020F17D03E
:100C1C0013F0040F04D0474A536843F4E063536065
:100C2C00236813F0080F04D0424A536843F460530E
:100C3C005360404A536823F0F003A1680B435360A0
:100C4C00236813F0010F31D06368012B20D0022BE5
:100C5C0025D0384A126812F0020F64D035494A6820
:100C6C0022F0030213434B60FFF75AFD0646314B4B
:100C7C005B6803F00C036268B3EB820F16D0FFF7CE
:100C8C004FFD801B41F288339842F0D9032045E098
:100C9C00284A126812F4003FE0D101203EE0254AB8
:100CAC00126812F0007FD9D1012037E0204B1B686D
:100CBC0003F00703AB420AD91D4A136823F007035C
:100CCC002B431360136803F00703AB422DD1236849
:100CDC0013F0040F06D0174A536823F4E063E1685D
:100CEC000B435360236813F0080F07D0114A536865
:100CFC0023F46053216943EAC1035360FFF734FFC7
:100D0C000C4B5B68C3F303130B4AD35CD8400B4BFF
:100D1C0018600B4B1868FFF7BFFC002070BD01205A
:100D2C0070470120FAE70120F8E70120F6E700BF41
:100D3C000020024000100240E411000808000020CE
:100D4C0004000020014B1868704700BF0800002009
:100D5C0008B5FFF7F7FF044B5B68C3F30223034AA4
:100D6C00D35CD84008BD00BF00100240F41100084D
:100D7C0070B582B00024A446A6E0804DAB4210D0E2
:100D8C0007D97F4DAB420CD005F58035AB4208D06E
:100D9C0013E0A5F58015AB4203D005F57025AB42E9
:100DAC0007D18B68002B58D0012B51D042610824FD
:100DBC0003E0A5F58015AB42F3D0BEF1FF0F4ED882
:100DCC000646BEF1FF0F4CD84FEA8C0233680F2554
:100DDC00954023EA050304FA02F2134333604B688F
:100DEC0013F0805F6ED0674B9A6942F001029A61F2
:100DFC009B6903F001030193019B4FEA9C02951C34
:100E0C00614B53F825600CF00305AD000F23AB408C
:100E1C0026EA03065D4B984229D003F5806398427D
:100E2C0000F08E8003F58063984200F08B8003F510
:100E3C008063984219D004231AE0CC68BDE7CC68D3
:100E4C000434BAE7CC680834B7E7CC680C34B4E7A0
:100E5C0002610824B1E70024AFE70424ADE7061DC6
:100E6C00AFE7ACF108029200B0E7032300E00023E7
:100E7C00AB4033430232444D45F822304B6813F4F7
:100E8C00803F61D0424A136843EA0E0313604B68FB
:100E9C0013F4003F5ED03E4A536843EA0E0353609E
:100EAC004B6813F4801F5BD0394A936843EA0E03F6
:100EBC0093604B6813F4001F58D0354AD36843EA4B
:100ECC000E03D3600CF1010C0B6833FA0CF253D007
:100EDC00012202FA0CF203EA020E32EA0303F1D108
:100EEC004B68122B3FF649AF122B3FF666AF01A5AC
:100EFC0055F823F0AF0D0008470E0008510E0008FE
:100F0C00630E0008C70D0008C70D0008C70D0008C8
:100F1C00C70D0008C70D0008C70D0008C70D000855
:100F2C00C70D0008C70D0008C70D0008C70D000845
:100F3C00C70D0008C70D00084B0E0008570E00081F
:100F4C00012395E7022393E7114A136823EA0E0362
:100F5C0013609CE70E4A536823EA0E0353609FE725
:100F6C000B4A936823EA0E039360A2E7084AD368FE
:100F7C0023EA0E03D360A5E702B070BD0000221077
:100F8C000000311000100240000001400008014038
:100F9C0000040140074AD36823F4E0631B041B0CD4
:100FAC00000200F4E060034343F0BF6343F40033FA
:100FBC00D360704700ED00E000B5194BDB68C3F35C
:100FCC000223C3F1070CBCF1040F28BF4FF0040C33
:100FDC0003F1040EBEF1060F18D9033B4FF0FF3E90
:100FEC000EFA0CFC21EA0C0199400EFA03FE22EADF
:100FFC000E020A4300280BDB1201D2B200F1604052
:10100C0000F5614080F800235DF804FB0023E5E760
:10101C0000F00F001201D2B2024B1A54F4E700BFD9
:10102C0000ED00E014ED00E00138B0F1807F0BD250
:10103C004FF0E0235861054AF02182F8231000207C
:10104C00986107221A6170470120704700ED00E09B
:10105C00002856D010B50446436A33B94368B3F53B
:10106C00827F05D00023C36102E00023036143614A
:10107C000023A36294F85130002B3CD0022384F857
:10108C0051302268136823F040031360636803F443
:10109C008273A26802F404421343E26802F4006211
:1010AC001343226902F002021343626902F0010247
:1010BC001343A26902F400721343E26902F038028E
:1010CC001343226A02F080021343A26A02F4005214
:1010DC00216813430B60638B226803F00403536095
:1010EC002268D36923F40063D36100206065012377
:1010FC0084F8513010BD84F850302046FFF7B4F915
:10110C00BCE70120704770470C480D490D4A00237D
:10111C0002E0D458C4500433C4188C42F9D30A4AA0
:10112C000A4C002301E013600432A242FBD3FFF708
:10113C00EAFF00F00FF8FFF705F9704700000020F8
:10114C000C000020041200080C0000202C010020D0
:10115C00FEE7000070B500260C4D0D4C641BA4106E
:10116C00A64209D100F022F800260A4D0A4C641B55
:10117C00A410A64205D170BD55F8043B9847013622
:10118C00EEE755F8043B98470136F2E7FC110008EE
:10119C00FC110008FC110008001200080346024470
:1011AC00934200D1704703F8011BF9E7F8B500BF73
:1011BC00F8BC08BC9E467047F8B500BFF8BC08BC2C
:0411CC009E46704784
:1011D00002030405060708090A0B0C0D0E0F101078
:1011E00000000000000000000000000001020304F5
:0C11F000060708090000000001020304CB
:0411FC007501000871
:041200004D01000894
:0C12040001000000100000000024F400B5
:0400000508001115C9
:00000001FF
