:020000040800F2
:10000000002000205912000845120008471200087D
:1000100000000000000000000000000000000000E0
:10002000000000000000000000000000491200086D
:1000300000000000000000004B1200084D120008F4
:10004000A912000800000000A9120008A912000867
:10005000A9120008A9120008A9120008A912000894
:1000600000000000A9120008A9120008A912000847
:10007000A9120008A9120008A91200080000000037
:10008000A9120008A912000800000000A912000827
:10009000A9120008A9120008A9120008A912000854
:1000A000A9120008A9120008A9120008A912000844
:1000B000A91200080000000000000000000000007D
:1000C000002243088B4274D303098B425FD3030A97
:1000D0008B4244D3030B8B4228D3030C8B420DD3AA
:1000E000FF22090212BA030C8B4202D31212090238
:1000F00065D0030B8B4219D300E0090AC30B8B4276
:1001000001D3CB03C01A5241830B8B4201D38B0323
:10011000C01A5241430B8B4201D34B03C01A5241C8
:10012000030B8B4201D30B03C01A5241C30A8B420B
:1001300001D3CB02C01A5241830A8B4201D38B02F6
:10014000C01A5241430A8B4201D34B02C01A52419A
:10015000030A8B4201D30B02C01A5241CDD2C3090C
:100160008B4201D3CB01C01A524183098B4201D388
:100170008B01C01A524143098B4201D34B01C01A73
:10018000524103098B4201D30B01C01A5241C308EB
:100190008B4201D3CB00C01A524183088B4201D35A
:1001A0008B00C01A524143088B4201D34B00C01A46
:1001B0005241411A00D20146524110467047FFE7B2
:1001C00001B5002000F006F802BDC0460029F7D0B6
:1001D00076E770477047C046844608006146FFE7EF
:1001E0001FB502F025FD002801D40021C8421FBD23
:1001F00010B502F0B1FC4042013010BD10B502F064
:1002000017FD002801DB002010BD012010BDC046F5
:1002100010B502F00DFD002801DD002010BD012009
:1002200010BDC04610B502F0BDFC002801DC002066
:1002300010BD012010BDC04610B502F0B3FC00286F
:1002400001DA002010BD012010BDC0461C21012391
:100250001B04984201D3000C10391B0A984201D3A9
:10026000000A08391B09984201D30009043902A287
:10027000105C40187047C0460403020201010101EE
:1002800000000000000000000448054B10B5834248
:1002900003D0044B002B00D0984710BD0C00002069
:1002A0000C0000200000000006480749091A8B10C6
:1002B000C90FC91810B5491003D0044B002B00D04A
:1002C000984710BD0C0000200C000020000000002A
:1002D00010B5074C2378002B09D1FFF7D5FF054B4C
:1002E000002B02D0044800E000BF0123237010BDA2
:1002F0000C00002000000000A42D0008054B10B5E4
:10030000002B03D00449054800E000BFFFF7CCFFF5
:1003100010BDC0460000000010000020A42D000801
:10032000F0B5CE4600B582B001900F001500994699
:10033000089E013B013A00F0CDFC06E0300000F0E1
:10034000A8FC0134AC42F9D301374F4501D2019CDE
:10035000F8E702B080BCB946F0BD10B514000B0040
:10036000020000F0B7FC200000F093FC10BD00007C
:10037000F0B5DE4657464E464546E0B587B000909C
:1003800003919346019310AB04CB02921B789A46DB
:1003900012AB1B7899465346DA08072351460B40A7
:1003A000591E8B41D31852465A4304920025002609
:1003B000804648E0029800F06CFC0136F6B25146E7
:1003C0003000FFF703FFC9B2002934D00134E4B292
:1003D000072C23D84B46002B0DD1314B1A22414616
:1003E0004A439B18DB199B782341DB07E2D5019830
:1003F00000F04FFCE1E72A4B1A2241464A439B1882
:10040000DB199B782341DB070FD40135009BEB1AE6
:100410009B45DBD1039B01330393009D0137FFB262
:10042000049B9F4209D20024D2E7019A0399280035
:10043000FFF793FFE9E70E00F0E74346A846059A69
:1004400093461D000135042D22D8154B1A226A430C
:10045000D25C5B461B789A42F4D1114B1A226A4354
:100460009B185A785B465B789A42EBD152464244DD
:1004700003990B005344013B013A404600F02AFC2B
:1004800000272A0045465B460593D3469046C7E7BA
:1004900007B0F0BCBB46B246A946A046F0BDC04678
:1004A000B0610008F0B5DE4657464E464546E0B519
:1004B00087B0009003919346019310AB04CB029256
:1004C0001B789A4612AB1B7899465346DA080723E5
:1004D00051460B40591E8B41D31852465A43049241
:1004E00000240026804651E0029800F0D2FB01363D
:1004F000F6B251463000FFF769FEC9B200293DD07F
:100500000135EDB2072D2CD84B46002B0DD1354BC4
:100510002201121952009B1843449B782B41DB07A0
:10052000E2D5019800F0B5FBE1E72E4B220112194C
:1005300052009B1843449B782B41DB070BD40137B7
:10054000009BFB1A9B45DBD14746039B013303937A
:10055000009B984608E0019A03993800FFF7FDFEDA
:10056000EDE74346B8461F000137FFB2049B9F42A8
:1005700009D200253B0047469846C3E74346B846A4
:100580001F000E00F0E7059B9B460134042C21D888
:10059000144A23011B195B009A5C5B461B789A4244
:1005A000F3D1104B2201121952009B185A785B4666
:1005B0005B789A42E9D15246424403990B00534476
:1005C000013B013A404600F085FB00275B4605935E
:1005D000D346CBE707B0F0BCBB46B246A946A0461F
:1005E000F0BDC04634620008F0B5DE4657464E46C0
:1005F0004546E0B587B0009003919346019310AB58
:1006000004CB02921B789A4612AB1B78994653464C
:10061000DA08072351460B40591E8B41D318524626
:100620005A43049200250026804648E0029800F0D4
:1006300030FB0136F6B251463000FFF7C7FDC9B2B4
:10064000002934D00134E4B2072C23D84B46002BC8
:100650000DD1314B4A2241464A439B18DB199B7806
:100660002341DB07E2D5019800F013FBE1E72A4BB9
:100670004A2241464A439B18DB199B782341DB07FA
:100680000FD40135009BEB1A9B45DBD1039B013353
:100690000393009D0137FFB2049B9F4209D20024BF
:1006A000D2E7019A03992800FFF757FEE9E70E0009
:1006B000F0E74346A846059A93461D000135042DF0
:1006C00022D8154B4A226A43D25C5B461B789A4279
:1006D000F4D1114B4A226A439B185A785B465B78E7
:1006E0009A42EBD15246424403990B005344013BDA
:1006F000013A404600F0EEFA00272A0045465B46E4
:100700000593D3469046C7E707B0F0BCBB46B24658
:10071000A946A046F0BDC046E0620008F0B5DE463E
:1007200057464E464546E0B587B000900391934644
:10073000019310AB04CB02921B789A4612AB1B7844
:1007400099465346DA08072351460B40591E8B4100
:10075000D31852465A43049200240026804651E0A2
:10076000029800F096FA0136F6B251463000FFF7D3
:100770002DFDC9B200293DD00135EDB2072D2CD891
:100780004B46002B0DD1354BA201121952009B187C
:1007900043449B782B41DB07E2D5019800F079FABE
:1007A000E1E72E4BA201121952009B1843449B789B
:1007B0002B41DB070BD40137009BFB1A9B45DBD198
:1007C0004746039B01330393009B984608E0019A38
:1007D00003993800FFF7C1FDEDE74346B8461F0017
:1007E0000137FFB2049B9F4209D200253B004746D8
:1007F0009846C3E74346B8461F000E00F0E7059B46
:100800009B460134042C21D8144AA3011B195B0018
:100810009A5C5B461B789A42F3D1104BA2011219E5
:1008200052009B185A785B465B789A42E9D152464F
:10083000424403990B005344013B013A404600F007
:1008400049FA00275B460593D346CBE707B0F0BCD7
:10085000BB46B246A946A046F0BDC0465464000857
:10086000F0B5D6464F464646C0B584B00600884629
:1008700015001F000CAB04CB92461C780EAB1B7806
:1008800099460CE04B4602930194534600933B007B
:100890002A0041463000FFF76BFD023536192A78F1
:1008A000002A2BD00C2CEDD0102C0FD0182C19D0E6
:1008B000202C23D14B4602930194534600933B00D6
:1008C0002A0041463000FFF729FFE6E74B46029336
:1008D0000194534600933B002A0041463000FFF745
:1008E000E1FDDAE74B4602930194534600933B0047
:1008F0002A0041463000FFF777FECEE704B0E0BCA7
:10090000BA46B146A846F0BDF0B5DE4657464E465B
:100910004546E0B589B082460D000591029312ABC1
:1009200001CB04901C78039414AB1B7898466308A1
:100930009B462109072358460340581E8341CB1884
:1009400020005C430694203AD3B207935B460193A0
:100950005A4652442B0084466344013B013A290025
:10096000504600F0B7F9564600239946002547E067
:10097000364B07994A008C46624492009B184A46BF
:100980009F5C00241EE0324B079A12019B184A46D6
:100990009F5CF6E72F4B07994A008C466244120190
:1009A0009B184A469F5CECE7049800F072F9013509
:1009B000EDB259462800FFF709FCC9B200293BD027
:1009C0000134E4B2072C18D84346002B07D13B0072
:1009D0002341DB07E8D5029800F05BF9E7E73B002D
:1009E0002341DB0722D401365346F31A019A9A4277
:1009F000E6D1059B01330593564601239C46E1440D
:100A0000069B99451AD2039B0C2BB1D0039B102B4C
:100A1000B9D0039B182BBDD0039B202B0ED10E4BBE
:100A2000079A92019B184A469F5CAAE7029A059989
:100A30003000FFF792FCD6E70D00DEE709B0F0BC0E
:100A4000BB46B246A946A046F0BDC046BC2D000834
:100A50003032000820380008F0490008F0B5D646CA
:100A60004F464646C0B584B00500884614001F00B6
:100A70000CAB04CB92461E780EAB1B7899460CE06B
:100A80004B4602930196534600933B004146280093
:100A9000FFF73AFF7308ED1801342278002AEFD1EE
:100AA00004B0E0BCBA46B146A846F0BD0200012041
:100AB00001E0504319004B1EDBB20029F9D1704709
:100AC000F0B5DE4657464E464546E0B585B0814610
:100AD000884617001D0010AB1B789A465B089B46A2
:100AE000002600241FE05B4658434844002302933D
:100AF000534601930F9B00930E9B20224146FFF724
:100B000003FF0EE03031CAB2584660434844002328
:100B10000293534601930F9B00930E9B4146FFF7B0
:100B2000F3FE0134E4B2AC4218D2291BC9B2013938
:100B3000C9B20A20FFF7BAFF01003800FFF7C0FA78
:100B40000A21FFF743FBC9B2002EDBD120006B1E48
:100B50009C42D7DA0029C6D00126D3E705B0F0BC05
:100B6000BB46B246A946A046F0BD0000F0B5DE4641
:100B700057464E464546E0B587B080468B46101C2A
:100B80001E0012AB1B7899465B089A46244901F077
:100B9000A7F801F08DF8059000245746119B9A465E
:100BA00011E0380060432A003032D2B240440023C2
:100BB00002934B46019353460093109B5946FFF70F
:100BC000A3FE0134E4B2A64223D9311BC9B20139D4
:100BD000C9B20A20FFF76AFF01000598FFF770FA13
:100BE0000A21FFF7F3FACDB2B01E8442D9D178437F
:100BF0004044002302934B46019353460093109BBD
:100C00002E225946FFF780FE0134E4B20136F6B2D7
:100C1000C7E707B0F0BCBB46B246A946A046F0BD48
:100C20000000C84270B50400902000221021C005C9
:100C300000F096FC00250FE0902000228021C005E6
:100C400000F08EFC902001222021C00500F088FCDD
:100C50006400E4B20135EDB2072D0FD890200022D8
:100C60002021C00500F07CFC63B2002BE4DA902068
:100C700001228021C00500F073FCE3E790200122EF
:100C80001021C00500F06CFC70BD10B5FFF7CAFF65
:100C900010BD10B50400000AC0B2FFF7C3FFE0B2F8
:100CA000FFF7C0FF10BD000070B504008026B6013C
:100CB000074D00223100280000F052FC2000FFF711
:100CC000B1FF01223100280000F04AFC70BDC0468F
:100CD00000040048F8B507000D0016001C002A208B
:100CE000FFF7E2FFB81CFFF7D4FFB01CFFF7D1FFFE
:100CF0002B20FFF7D9FF681CFFF7CBFF601CFFF725
:100D0000C8FF2C20FFF7D0FFF8BD000070B580258C
:100D10006D017D4C00222900200000F021FC6420A0
:100D200000F00CF901222900200000F019FC6420D9
:100D300000F004F901221021200000F011FC6420D1
:100D400000F0FCF81120FFF7AFFF782000F0F6F874
:100D5000B120FFF7A9FF0520FFF797FF3C20FFF721
:100D600094FF3C20FFF791FFB220FFF79DFF052085
:100D7000FFF78BFF3C20FFF788FF3C20FFF785FF44
:100D8000B320FFF791FF0520FFF77FFF3C20FFF71F
:100D90007CFF3C20FFF779FF0520FFF776FF3C2022
:100DA000FFF773FF3C20FFF770FFB420FFF77CFFD5
:100DB0000320FFF76AFFC020FFF776FF2820FFF728
:100DC00064FF0820FFF761FF0420FFF75EFFC120EA
:100DD000FFF76AFFC020FFF758FFC220FFF764FF4C
:100DE0000D20FFF752FF0020FFF74FFFC320FFF752
:100DF0005BFF8D20FFF749FF2A20FFF746FFC42045
:100E0000FFF752FF8D20FFF740FFEE20FFF73DFF79
:100E1000C520FFF749FF1A20FFF737FF3620FFF7FD
:100E200043FFC020FFF731FFE020FFF73DFF042024
:100E3000FFF72BFF2220FFF728FF0720FFF725FFF2
:100E40000A20FFF722FF2E20FFF71FFF3020FFF7B9
:100E50001CFF2520FFF719FF2A20FFF716FF282087
:100E6000FFF713FF2620FFF710FF2E20FFF70DFFDF
:100E70003A20FFF70AFF0020FFF707FF0120FFF7E6
:100E800004FF0320FFF701FF1320FFF7FEFEE12020
:100E9000FFF70AFF0420FFF7F8FE1620FFF7F5FE24
:100EA0000620FFF7F2FE0D20FFF7EFFE2D20FFF7E3
:100EB000ECFE2620FFF7E9FE2320FFF7E6FE2720C1
:100EC000FFF7E3FE2720FFF7E0FE2520FFF7DDFE1A
:100ED0002D20FFF7DAFE3B20FFF7D7FE0020FFF7BB
:100EE000D4FE0120FFF7D1FE0420FFF7CEFE132031
:100EF000FFF7CBFE3A20FFF7D7FE0520FFF7C5FE30
:100F00002920FFF7D1FE70BD0004004810B5074B43
:100F100018680749FFF7D4F840B2064B1870FA2357
:100F20009B004343044A138010BDC04600000020CC
:100F300000127A002A000020280000200C4B00221A
:100F40009B5E58430B4B586000229A601A6801213F
:100F50000A431A60074B1B68074A1340012BF9D05C
:100F6000044B1A6801218A431A6000229A60704774
:100F70002800002010E000E001000100F0B5C646A6
:100F800000B588B01422002103A801F0B7FE264B5B
:100F90005A69802189020A435A615A690A400192BA
:100FA000019A5A698021C9020A435A615B690B4060
:100FB0000293029B80277F009026F60500223900CD
:100FC000300000F0CDFA194D00224021280000F039
:100FD000C7FA174B03930323984604930024059400
:100FE00003A9280000F0F8F90397FF3F0497059440
:100FF000069403A9300000F0EFF980239B000393CF
:1010000043460493059403A9300000F0E5F940231A
:10101000039304970594069403A9280000F0DCF9D3
:1010200008B080BCB846F0BD001002400004004883
:101030009030000072B6FEE710B50F480F4B03600A
:1010400082235B00436000238360E022D200C26001
:10105000036143618361C361036243628362072268
:10106000C26203630833436300F0A0FD002800D18F
:1010700010BDFFF7DFFFC0462C000020003001400C
:1010800000B591B03022002104A801F037FE1022F3
:101090000021684601F032FE02230493013B0793CE
:1010A0000F33089304A800F061FA00280DD107233C
:1010B000009300230193029303930021684600F0FC
:1010C000DBFC002803D111B000BDFFF7B3FFFFF731
:1010D000B1FF0000F0B5C64600B584B000F00EF9CF
:1010E000FFF7CEFFFFF74AFFFFF7A6FFFFF70EFF60
:1010F000FFF70CFE284B0093A02380220021002044
:10110000FFF70EF900239846F8242402234A00270B
:10111000029718230193204D009523000021002001
:10112000FFF79EFB1E4A02971026019600952300AA
:101130001E211820FFF792FC0296019500940323CC
:1011400080221E214820FFF7BBFC164A0297019619
:101150000095230032211820FFF780FC02960195AC
:1011600000940323A02232214820FFF7A9FC029615
:10117000019500940423424650211420FFF7F6FC09
:10118000404601F01BFC084A084B01F0B7F801F09B
:101190005DFC8046B8E7C046FFFF0000E06600083F
:1011A000F0660008F8660008295C8FC2F528BC3F8D
:1011B00082B00A4B996901221143996199690A40E9
:1011C0000092009ADA69802149050A43DA61DB69F5
:1011D0000B400193019B02B07047C04600100240D3
:1011E00010B588B004001422002103A801F086FD88
:1011F0002268124B9A4201D008B010BD104B9A6978
:10120000802149010A439A619A690A400192019A30
:101210005A69802189020A435A615B690B40029333
:10122000029BF0230393EE3B04930133069390203B
:1012300003A9C00500F0D0F8DEE7C0460030014049
:1012400000100240FEE7FEE77047704710B500F05F
:1012500065F810BD704700000D4885460D480E49E1
:101260000E4A002302E0D458C4500433C4188C4200
:10127000F9D30B4A0B4C002301E013600432A24265
:10128000FBD3FFF7E7FF01F017FDFFF723FFFEE7B2
:1012900000200020000000200C0000204067000813
:1012A0000C00002094000020FEE7000010B50400B0
:1012B0000F4B1978FA208000FEF702FF01000D4B5A
:1012C0001868FEF7FDFE00F06BF800280DD1032C26
:1012D00001D901200AE0013000222100404200F043
:1012E0002FF8054B1C60002000E0012010BDC04617
:1012F00004000020000000200800002010B5064A6D
:10130000136810210B4313600320FFF7CFFFFFF793
:101310004FFF002010BDC04600200240034A116864
:10132000034B1B785B1813607047C0469000002089
:1013300004000020014B18687047C0469000002050
:1013400070B5002811DB8308134DC0339B005C5936
:1013500003221040C000FC3216008640B4438901CD
:101360000A40824022435A5170BD0F230340083B7C
:101370009B0806339B00094A944663445C68032239
:101380001040C000FC3215008540AC4389010A4082
:10139000824022435A60E7E700E100E000ED00E010
:1013A000013880235B0498420FD2094A50600948F3
:1013B000036A1B021B0AC02109060B4303620023B8
:1013C000936007331360002070470120FCE7C0469C
:1013D00010E000E000ED00E0F0B583B0002356E03F
:1013E00086685F000324BC40A643CC68BC403443FD
:1013F0008460446894434E683609012232409A4022
:101400002243426053E0DE080836B6003758053202
:101410001A4092000F249440A7430C699440220084
:101420003A43325056E0032600E00026A64034003E
:101430003C4302329200444E9451444A1768EA43B6
:101440003E00AE434C68E40301D53E002E433F4CC2
:10145000266067683E0016404C68A40301D53E0034
:101460002E433A4C6660A7683E0016404C68E40282
:1014700001D53E002E43354CA660E66832404C68EC
:10148000A40201D52A003243304CE26001330C68DB
:101490002200DA4056D001229A402500154014421D
:1014A000F4D04E6803243440013C012C98D94C6898
:1014B00003222240032A08D0C4685E000322B240FF
:1014C00094438A68B2402243C2604C68032222409F
:1014D000022A98D004685E0003221700B740BC437C
:1014E0004F683A40B240224302604C68C0229202E8
:1014F0001442CBD0164CA66901221643A661A469FA
:1015000022400192019A9A08941CA4000E4EA759F9
:1015100003241C40A4000F26A640B7439026F605DE
:10152000B04282D00B4EB04208D00B4EB04207D032
:101530000A4EB04200D176E7052677E7012675E727
:10154000022673E703B0F0BD000001400004014033
:10155000001002400004004800080048000C004849
:10156000002A01D0816170478162FCE770B582B0CA
:10157000041E00D12EE20368DB0726D5AE4B5A6865
:101580000C231340042B18D0AB4B5A680C23134088
:10159000082B0ED06368012B3CD0002B51D1A64BF9
:1015A0001A68A6490A401A601A68A5490A401A60D2
:1015B00036E0A14B5B68DB03ECD59F4B1B689B03BC
:1015C00003D56368002B00D107E223689B0772D51F
:1015D000994B5B680C221A425DD0974B5A680C23DA
:1015E0001340082B53D0E368002B00D185E0924ACA
:1015F000136801210B431360FFF79CFE05008E4B1F
:101600001B689B0770D4FFF795FE401B0228F6D994
:101610000320E0E1884A116880235B020B431360DA
:101620006368002B25D0FFF785FE0500824B1B6801
:101630009B03CAD4FFF77EFE401B6428F6D9032023
:10164000C9E1052B09D07C4B1A687C490A401A6015
:101650001A687B490A401A60E2E7774B19688022D2
:10166000D2020A431A601968802252020A431A60A1
:10167000D6E7FFF75FFE05006F4B1B689B03A4D501
:10168000FFF758FE401B6428F6D90320A3E16A4BFC
:101690005B68DB03A7D4684B1B689B0703D5E36833
:1016A000012B00D09BE164490B68F8229343226927
:1016B000D20013430B6023681B0744D5E369002B5A
:1016C0002ED05D4A536A01210B435362FFF732FE6D
:1016D0000500594B5B6A9B0735D4FFF72BFE401B77
:1016E0000228F6D9032076E153490B68F822934388
:1016F0002269D20013430B60DDE74F4A13680121D2
:101700008B431360FFF716FE05004B4B1B689B07CE
:10171000D1D5FFF70FFE401B0228F6D903205AE16E
:10172000454A536A01218B435362FFF703FE0500CC
:10173000414B5B6A9B0706D5FFF7FCFD401B022867
:10174000F6D9032047E123685B0700D480E03A4BD9
:10175000DB69DB001DD4384BDA69802149050A4377
:10176000DA61DB690B400193019B0125354B1B6856
:10177000DB0510D5A368012B21D0002B36D12E4BD1
:101780001A6A01218A431A621A6A03318A431A6269
:101790001AE00025EAE72B4A116880235B000B431F
:1017A0001360FFF7C7FD0600264B1B68DB05E1D47D
:1017B000FFF7C0FD801B6428F6D903200BE11E4A09
:1017C000136A01210B431362A368002B24D0FFF797
:1017D000B1FD0600184B1B6A9B0737D4FFF7AAFD23
:1017E000801B194B9842F5D90320F4E0052B09D052
:1017F000114B1A6A01218A431A621A6A03318A4319
:101800001A62E1E70C4B1A6A04210A431A621A6A47
:1018100003390A431A62D7E7FFF78CFD0600064B2F
:101820001B6A9B0712D5FFF785FD801B064B98426C
:10183000F5D90320CFE0C04600100240FFFFFEFFB5
:10184000FFFFFBFF0070004088130000012D33D024
:101850002368DB0610D56369012B33D0053351D1E2
:10186000654A536B04218B435363536BF4318B43B1
:10187000A169C9000B435363236A002B00D1B0E078
:101880005D4A51680C220A40082A00D18AE0022BE6
:101890004FD0594A136859490B401360FFF74AFD6E
:1018A0000400554B1B689B017AD5FFF743FD001BD5
:1018B0000228F6D903208EE04F4AD36950490B40E5
:1018C000D361C5E74C4B5A6B04210A435A635A6BE8
:1018D00003390A435A63FFF72DFD0500464B5B6B46
:1018E0009B0706D4FFF726FD401B0228F6D90320EC
:1018F00071E041494B6BF8229343A269D200134334
:101900004B63B9E73C4B5A6B04210A435A635A6B49
:1019100003398A435A63FFF70DFD0500364B5B6BB5
:101920009B07A9D5FFF706FD401B0228F6D9032027
:1019300051E0314A136831490B401360FFF7FAFC5C
:1019400005002D4B1B689B0106D5FFF7F3FC401BE0
:101950000228F6D903203EE0274BDA6A0F218A439A
:10196000E16A0A43DA625A6826490A40A16A606A53
:1019700001430A435A601968802252040A431A60DC
:10198000FFF7D8FC04001C4B1B689B0106D4FFF733
:10199000D1FC001B0228F6D903201CE000201AE02D
:1019A000002018E0012B1ED0134B5A68D86A802300
:1019B0005B021340616A8B4217D10F230340E16A37
:1019C0008B4214D1F0239B031A40A36A9A4210D190
:1019D000002000E0012002B070BD0120FBE70120E3
:1019E000F9E70020F7E70120F5E70120F3E7012000
:1019F000F1E70120EFE7C04600100240FFFFFFFEC5
:101A0000FFFFFFEFFFFFC2FF30B589B004AA164BFE
:101A100031CB31C21B6813606A46144B31CB31C2E3
:101A20001B681360124B5A680C231340082B02D01A
:101A3000104809B030BD910C0733194004A8445C2C
:101A40000B49C96A0B406946C95CD20304D50948F1
:101A5000FEF736FB6043ECE76201121B93019B1A11
:101A6000DB001B191802E4E7106700082467000870
:101A70000010024000127A0070B504000D0000282A
:101A800000D17EE0434B1A68012313408B420AD2F7
:101A900040490B68012293432B430B600B681A40AB
:101AA000AA4200D06FE023689A070ED55B0705D5E0
:101AB000394A5168E023DB000B435360364A5368D0
:101AC000F0218B43A1680B4353602368DB072DD5BE
:101AD0006368012B1ED0022B22D02F4A1268920776
:101AE00053D52D494A680320824313434B60FFF7C7
:101AF00021FC0600284B5B680C221A4063689B009F
:101B00009A4213D0FFF716FC801B244B9842F1D960
:101B1000032035E0204A12689203E2D401202FE02E
:101B20001D4A12689201DCD4012029E0194B1A6881
:101B300001231340AB4209D916490B680122934394
:101B40002B430B600B681A40AA4220D123685B0725
:101B500006D5114A536812490B40E1680B435360A4
:101B6000FFF752FF0C4B5A6812090F2313400D4A1E
:101B7000D35CD8400C4B18600320FFF797FB002084
:101B800070BD0120FCE70120FAE70120F8E7012001
:101B9000F6E7C04600200240001002408813000013
:101BA000FFF8FFFF006700080000002070B5041E6A
:101BB00000D178E0436A002B07D142680533FF3338
:101BC0009A4205D00023C36102E000230361436110
:101BD0000023A3625D33E35C002B5AD05D23022215
:101BE000E2542268136840218B431360E368E022CB
:101BF000D200934254D90022F02109018B4205D032
:101C0000E021C9008B4201D00023A36263688221D6
:101C100049000B40A1688420000201400B43206969
:101C2000022101400B436069012108400343A06980
:101C30008025AD0028400343E56938202840034350
:101C4000256A802028400343A06A8025AD012840F2
:101C5000256803432B60608B04230340656A1020D2
:101C600028400343656B082028400343E068F025C3
:101C70002D01284003432068134343602268D36941
:101C80000A480340D361002323665D33E1540020FA
:101C900070BD5C330022E2542000FFF7A1FA9DE7FB
:101CA00080225201A8E70120F2E7C046FFF7FFFFBC
:101CB0009E2110B5C905041CFEF7BEFA002803D109
:101CC000201C00F0FBFA10BD9E21201CC90500F06D
:101CD00055F900F0F3FA80231B069C466044F2E7B6
:101CE00043025B0AF0B54F4646469946D646C30FB7
:101CF00045009846C0B54B460F1C2D0E00D1CBE0D9
:101D0000FF2D00D1CFE08022DB00D2041A43002354
:101D1000914600269A467F3D7C027B00640A1B0E9A
:101D2000FF0F002B00D1A9E0FF2B11D08022E4008F
:101D3000D204144342467F3B5B197A400020D2B262
:101D40005D1C0A2E13DD3A000B2E47D047463FE0BC
:101D50002B00FF33002C1ED10222164342460135D0
:101D60007A40D2B2FF350A2E00DDE4E00220022ED6
:101D70001CDC013E012E42D802283DD0012866D14C
:101D800000200021C0050843D2071043E0BCBA463A
:101D9000B146A846F0BD03221643424601357A40BB
:101DA000D2B2FF350A2E00DDE4E003200121B1406C
:101DB000A626F60031420AD19026B600314216D14D
:101DC000B93EFF3E0E421AD0A146824600E01700FF
:101DD00053463A00022B0FD04C4650460328CDD133
:101DE0008021C90321434902FF20490ACAE7802113
:101DF0000022FF20C903C5E7FF200021C2E7200C15
:101E000049462404240C27000E0C0904090C7443D1
:101E10004F4346434843390C001909188C4203D9F3
:101E200080204002844666443F0408043F0CC019E9
:101E30008401671EBC41090C800E89190443890185
:101E40000C43090171D5012361081C400C432B0090
:101E50007F33002B51DD610704D00F21214004297D
:101E600000D00434210103D5434B1C402B008033A8
:101E7000FE2BC1DCA101490AD8B283E7002C2CD18A
:101E8000012342461E432B007A400120D2B25D1C42
:101E90000A2E00DD57E76AE7002B10D10123042644
:101EA00000259A4638E7002B04D102230826FF2597
:101EB0009A4631E703230C26FF259A462CE748462D
:101EC000FEF7C4F94A46431F76259A4000236D4227
:101ED000914600269A462D1A1EE72000FEF7B6F915
:101EE0004246431F9C402B1A763B7A400020D2B2D8
:101EF0005D1C0A2E00DD26E739E70121CB1A1B2BDA
:101F000000DD3DE79E352100AC40D940631E9C4179
:101F100021434B0704D00F230B40042B00D0043186
:101F20004B0104D5012000212CE71D008FE789011A
:101F30000020490A26E702230F2E0CD180214B46B0
:101F4000C9030B420DD00C420BD1214349023A0088
:101F5000FF20490A16E70B2E00D0F7E6A1469A4665
:101F600036E780214B46C903194349024246FF2008
:101F7000490A07E70323DFE7FFFFFFF7F0B5C6468F
:101F800043025B0A4500DA00C40F48024F00944642
:101F9000420A1E00904600B52D0E3F0EC90F800963
:101FA000FF2F59D0012251408C4239D0EA1B002A20
:101FB00058DD002F68D0FF2D00D1D1E08023DB0455
:101FC00018431B2A00DCE3E001236246D31A5A01BE
:101FD00000D4ACE09B019E093000FEF737F93300D6
:101FE00005388340854200DCC6E0B24A2D1A134012
:101FF0005A0704D00F221A40042A00D004335A0191
:1020000000D497E06A1CFE2D00D184E09B015E0A9B
:10201000D2B2D0053043E407204380BCB846F0BDBF
:10202000EA1B002A41DD002F6BD0FF2D00D197E085
:102030008023DB0418431B2A00DCCCE0012363442B
:102040005A0174D50135FF2D65D001229A491A40F5
:102050005B080B401343CBE700281FD08C4222D0F3
:102060002A00FF3A002A35D07A1B002D00D099E0D3
:102070006346002B00D1DDE0531E012A00D105E1AB
:10208000FF2A6BD01A0094E0002873D0511E012A59
:1020900000D1DFE0FF2A63D00A0092E7012251401D
:1020A000A14200D082E72A00FF3A002A36D07A1BEC
:1020B000002D00D1AAE0FF2F00D1DAE08023614695
:1020C000DB0419438C461B2A00DCD4E001233D00CD
:1020D0001B18B5E7FE276A1C174271D1002D00D0EE
:1020E0009EE06346002B00D1D5E00022002800D1FD
:1020F0008FE71B1A5E0100D4D6E063460C00C31ABA
:1021000076E7002836D0511E012A00D19AE0FF2A36
:1021100026D00A008FE7FF2200267AE7FE276A1CF6
:10212000174262D0FF2AF6D01500604443085A07D0
:1021300000D05FE7DB08FF2D12D05B025E0AEAB237
:1021400067E76246002A00D193E0002808D0802289
:10215000D203134204D04046104201D10C00434642
:10216000002BD8D08026F6031E437602FF22760A83
:102170004FE743461500DEE72022401B0130121ACC
:1021800019009340C1405A1E934100250B432FE78D
:1021900020239B1A010098400300D1405A1E93410E
:1021A0000B4312E7FF2FD9D080236446DB041C4386
:1021B000A4461B2A52DD01230C003D00C31A06E78A
:1021C00063461E1A730139D4002E00D004E70024A0
:1021D000002200261DE720239B1A010098400300DF
:1021E000D1405A1E93410B4329E7002DA9D16346E4
:1021F000002B56D00022002800D10AE703006344D8
:102200005A0194D52B4A0135134090E76346002BC1
:10221000AFD0531E012A15D0FF2A2AD01A0052E748
:102220006246002A91D1002898D180260024FF22FE
:10223000F603EEE60C00434615007CE763460C000F
:10224000C61AC9E60300634401255A0100D46EE7AB
:102250000225FAE6634601251B1AB8E664462023E8
:10226000D4409B1A62469A4013005A1E934123435E
:10227000A2E7434674E761462023D1409B1A624699
:102280009A4013005A1E93410B4320E763460C000B
:102290000125C31A9BE6002899D00C00464600226F
:1022A000B7E646460022B4E6002B00D03FE7002404
:1022B0000026AEE6FFFFFFFBFFFFFF7D410242006D
:1022C000C30F490A0020120E7E2A03DD9D2A02DD7B
:1022D000094A98187047802000040143952A07DCBA
:1022E0009620821AD1404842002BF3D10800F1E732
:1022F000963A9140F7E7C046FFFFFF7FF0B54F46A3
:102300004646D6460400C0B51F000B0310004E0021
:102310005B0ACD0F610F7A001943E3003C03FF0F06
:10232000BC46640A470F2743760D520DC000B946DC
:102330008046B71A654500D19BE0002F00DC84E0A1
:10234000002A00D1BEE0C84A964200D124E1802292
:102350004C4612041443A146382F00DD67E11F2FBD
:1023600000DDD6E120224C46D21B9440A2464446D2
:10237000FC4020005446044340469040421E904199
:102380004A46FA400443891A1C1BA3429241524216
:102390008B1A9A4653461B0200D4D4E053465A0285
:1023A000530A9A465346002B00D104E15046FDF7EC
:1023B0004DFF0300083B20222000D21A5146D04096
:1023C000994002009C400A43B34200DA02E19B1BA1
:1023D000591C1F2900DDA7E02023100026005B1AEE
:1023E0009C409840CE40CA40631E9C413043924678
:1023F00000260443630709D00F232340042B05D094
:10240000231DA342A4416442A2441C0053461B0264
:1024100000D49BE0944B01369E4200D1B8E0534675
:102420009249E4080B4019005B07234372054C02F4
:10243000240B520D1205ED0722432A431800110008
:10244000E0BCBA46B146A846F0BD002F48D0971B65
:10245000002E00D00EE10C001C4300D1B7E17C1E21
:10246000012F00D126E2804DAF4200D1D5E12700F7
:1024700007E1002F00DCB2E0002A47D07A4A9642FA
:1024800000D189E080224C4612041443A146382F23
:102490006BDC1F2F00DC6EE13A004846203AD0404A
:1024A0008446202F07D040224846D21B904002008D
:1024B0004046104380464046421E9041624604001A
:1024C000144357E04A46024300D103E17A1E012F2C
:1024D00000D193E1644CA74200D18AE117003BE7A9
:1024E000634C721C224200D0E0E00A001A43002E26
:1024F00000D074E1002A00D1D0E14A46024300D066
:10250000E3E14A07DB081343C90829E04A460243CE
:1025100000D17DE17A1E012F00D1E0E0524CA742AC
:1025200000D166E11700B2E710001F3BD840202918
:1025300003D040235B1A9A401443631E9C4100233E
:1025400000269A460443630700D055E75246E30845
:102550005207134352463700D108434A97421FD0CF
:1025600009037A050C0B520D64E742464C461443AE
:10257000621E9441E4189C429241524292468A441F
:1025800053461B02DFD5384B01369E4200D0B3E0E4
:102590003200002400234DE74A07DB081343C90833
:1025A0001A000A4300D100E2802424030C432403D0
:1025B0002D4A240B3EE72000FDF748FE03001833A8
:1025C0001F2B00DCF7E62200083882400024B342CB
:1025D00000DBFCE6F61A254B1A4092460AE7002F6C
:1025E0002BD0971B002E00D1B8E01F4CA24200D187
:1025F0001CE1802424042143382F00DD1EE11F2F1D
:1026000000DD9EE120260C00F61B1800B340B4400C
:10261000F8405E1EB341F94004431C4389444444DE
:1026200044459B415B424B449A461600A8E742460C
:102630004C461443621E9441A6E60D4C721C224285
:1026400000D0A8E00A001A43002E00D00AE1002AB8
:1026500000D15EE14A46024300D061E14A07DB084F
:102660001343C9087CE7C046FF070000FFFF7FFF58
:10267000FE070000CF4CA24200D1CEE0802424040B
:102680002143382F5BDC1F2F00DDDCE020250C0010
:10269000ED1B1E00AB40AC40FE405D1EAB41344321
:1026A000F9401C434B465B1A99464CE04A461C1ABB
:1026B000881AA34292415242924602005046121A90
:1026C0009246120278D45346234300D06AE6002192
:1026D000002545E74A07DB081343C9083DE71C18F6
:1026E0009C429B4149448A465B429A445346012698
:1026F0001B0200D427E702265246AF4B01211A40A5
:102700001300214062080A43DC075B089A46144321
:1027100070E63A004C46203AD440A446202F07D019
:1027200040224846D21B904002004046104380465B
:102730004046421E904162460400144324E6194379
:102740000C00631E9C4143461C1BA0459B4149460F
:102750005B42CB1A9A46654616001BE60C001C43EA
:1027600000D1C7E07C1E012F00D1F9E0914EB742A5
:102770005CD0270040E720224C464046D21B9440C4
:10278000F840044340469040421E90414A46FA4079
:1027900004438918EEE6874CA24200D1F9E61818E6
:1027A00098429B4149445B42CB18DC0740085B08D8
:1027B0009A4616000443C6E64246D41AA045804114
:1027C0004B464042591A0B1A9A466546EAE54B4673
:1027D0004A46C0085B0765460343D108BDE6002AA8
:1027E00000D08EE04B46034317D18021002509031A
:1027F000DAE64A07DB081343C908D1E61C1A4A4641
:10280000A3429B41891A5B42CB1A9A460126C1E535
:102810004A07DB081343C9089FE64346D8084B46DE
:102820004A465B0765460343D108B9E64346D808E4
:102830004B464A465B070343D108B1E619430C00F7
:10284000631E9C41EBE63C000D00203CE540202F40
:1028500003D04024E41BA1400B431C00631E9C4199
:102860002C4370E7002AE1D04A460243C1D04A0710
:10287000DB0813438022C9081203114208D04846DE
:10288000C408144204D143462100DB084207134325
:102890005A0FDB005207DB08134381E64B46034324
:1028A00000D114E74B464A46C0085B076546034320
:1028B000D10855E6C41AA04580414B464042591AFA
:1028C0000B1A9A466546012664E51C1A4A46A3423D
:1028D00080418A1A4042121A9246120249D5424653
:1028E000D41AA04580414B464042591A0B1A9A46C9
:1028F00065467FE54B464A46C0085B070343D1085F
:102900002BE64A46DB08024338D14A071343C9087D
:1029100046E64B464A46C0085B070343D1081FE61C
:102920001C189C429B4149448A465B429A44534648
:102930001B0200D407E652461F4B01261A4092465E
:1029400001E63C000E00203CE640202F03D040244E
:10295000E41BA1400B431C00631E9C4134435EE614
:1029600043448342804149448A4640421C00824499
:10297000BCE65346234300D1A9E6E4E54A071343E6
:102980008022C9081203114209D04846C4081442E3
:1029900005D1434665462100DB08420713435A0F21
:1029A000DB00DB0852071343FAE50023014A1C0051
:1029B00040E5C046FF070000FFFF7FFF70B5420201
:1029C0004300C40FFE201B0E591C550A08420CD0B0
:1029D000E02189008C466D07120B63441B051343ED
:1029E000E40723432800190070BD002B14D1002DEB
:1029F0001BD02800FDF72AFC0A281CDC0B232A0028
:102A00001B1ADA40030015339D400E4B12031B1AAC
:102A10005B05120B5B0DE1E7002D09D0130B802243
:102A200012031A436D07084BD8E700230022D5E7AD
:102A30000022054BD2E703002A000B3B9A400025F9
:102A4000E3E7C04689030000FF0700000200F0B57D
:102A50004B000D03400F5B0DCC0F6D0A3A49054347
:102A6000581CD70008420AD038495918FE2916DDEB
:102A7000FF200022C0051043E4072043F0BD002BD7
:102A800006D13D4326D005229201520AD8B2F1E781
:102A90002F43EDD08022D203FF202A43EAE700290A
:102AA0001BDD9201501E8241ED007F0F2A433A4305
:102AB000530747D00F231340042B00D00432802348
:102AC000DB0413403ED0481CFE29D1D09201520AAB
:102AD000C0B2CFE700200022CCE70A0017322FDB7C
:102AE000802636042E431E256D1A1F2D11DD02226D
:102AF0005242521A3100D140202D04D0144A94463B
:102B000063449E4037433A00531E9A410A430021D2
:102B1000CEE7104A38009446634498403A00411E7C
:102B200088419E40EA403043024300215307C1D10F
:102B300080211300C90401200B400A42C6D1A3E73B
:102B40000023A0E70B009FE7FE07000080FCFFFFCB
:102B5000A2FCFFFF82FCFFFF70B5420045024E025F
:102B60004C00C30F6D0A0120120E760A240EC90F05
:102B7000FF2A06D0FF2C03D0A24201D1B54206D0D5
:102B800070BD002DFCD1FF2CFAD1002EF8D18B4264
:102B900006D00120002AF3D12800431E9841EFE718
:102BA0000020EDE770B5420045024E024C00C30F15
:102BB0006D0A120E760A240EC80FFF2A1BD0FF2CB6
:102BC0000ED0002A1BD1002C01D1002E1CD0002DCC
:102BD0000CD083421CD00221581E0840013870BD21
:102BE000002E22D1002AF4D1002DF2D10028F6D1F6
:102BF00001204042F3E7002D17D1FF2CF0D0002C2C
:102C0000E7D1002EE5D1E6E70020002DE7D0E2E78E
:102C1000A24205DCEADBB54202D8E7D30020DEE7BA
:102C20004342584140000138D9E702204042D6E7EC
:102C300070B5420045024E024C00C30F6D0A120EE1
:102C4000760A240EC80FFF2A0BD0FF2C0DD0002AC5
:102C50001FD1002C16D1002E14D10020002D10D031
:102C600009E0002D0CD1FF2C13D1002E08D1002A31
:102C700008D0834212D00221581E0840013800E0DB
:102C8000022070BD002DF4D10028FAD1012040426D
:102C9000F7E7002CEDD1002EEBD1ECE7A24205DCEA
:102CA000F2DBB54202D8EFD30020EAE743425841B5
:102CB00040000138E5E7C04670B50C4E0C4D761B60
:102CC000B61005D0002408CD01349847A642FAD1A9
:102CD00000F068F8074E084D761BB61005D00024AA
:102CE00008CD01349847A642FAD170BD3867000874
:102CF000386700083C67000838670008F0B5050031
:102D0000830749D0541E002A45D003000326CAB2C7
:102D100002E00135013C3ED301332A703342F8D141
:102D2000032C30D9FF250D402A022A4315041543F0
:102D30000F2C34D92700103F3F093E01B4461E0036
:102D40001A0010366644156055609560D5601032E3
:102D5000B242F8D101373F01DB190F270C2227407F
:102D600022403C00002A0ED03E1FB608B400A44604
:102D70001A001C1D644420C2A242FCD10324013667
:102D8000B6009B193C40002C05D0C9B21C19197023
:102D900001339C42FBD1F0BD03001400C0E72700C3
:102DA000E2E7C046F8B5C046F8BC08BC9E4670478E
:0C2DB000F8B5C046F8BC08BC9E46704751
:102DBC0000000000000000000000000000000404FF
:102DCC00040404000004000014140A0000000000B5
:102DDC000000000000000A0A1F0A0A1F0A0A00006D
:102DEC0000040E1505060C14150E04000000121537
:102DFC000D152E2C2A1200000000040A0A36151597
:102E0C002916000002020100000000000000000072
:102E1C001008080404040404080810000204040840
:102E2C00080808080404020000000004150E0E1522
:102E3C000400000000000008083E08080000000024
:102E4C000000000000000000020201000000000071
:102E5C00003F000000000000000000000000000027
:102E6C0000020000002010100808040402020100F7
:102E7C0000000E1111111111110E000000000406BA
:102E8C0004040404040E000000000E1111080402D6
:102E9C00011F000000000E11100C1010110E00008C
:102EAC000000080C0C0A091F081C000000001F0180
:102EBC00010F1110110E000000000C12010D131166
:102ECC00110E000000001E10080804040404000089
:102EDC0000000E11110E1111110E000000000E1148
:102EEC001119161009060000000000000400000073
:102EFC0000040000000000000004000000040400B6
:102F0C000000100804020204081000000000000079
:102F1C003F003F00000000000000020408101008F1
:102F2C000402000000000E1111080404000400004B
:102F3C0000001C22292D2D1D221C00000000040461
:102F4C000C0A0A1E1233000000000F12120E12128D
:102F5C00120F000000001E1101010101110E0000F2
:102F6C0000000F1212121212120F000000001F129A
:102F7C000A0E0A02121F000000001F120A0E0A029B
:102F8C000207000000001C1201013911120C000094
:102F9C0000003312121E12121233000000001F0424
:102FAC0004040404041F000000003E08080808087C
:102FBC0008080907000037120A060A121237000027
:102FCC000000070202020202223F000000003B1B2D
:102FDC001B1B15151535000000003B1216161A1A8E
:102FEC001217000000000E1111111111110E00002A
:102FFC0000000F12120E02020207000000000E1158
:10300C0011111117190E180000000F12120E0A12CE
:10301C001237000000001E1101060810110F0000ED
:10302C0000001F1504040404040E000000003312F9
:10303C0012121212120C000000003312120A0A0CA7
:10304C00040400000000151515150E0A0A0A0000EC
:10305C0000001B0A0A04040A0A1B000000001B0AD9
:10306C000A0A0404040E000000001F0908040402EC
:10307C00121F00001C0404040404040404041C00B7
:10308C000002020404040808081010000E080808C6
:10309C000808080808080E00040A000000000000D8
:1030AC000000000000000000000000000000003FD5
:1030BC0002040000000000000000000000000000FE
:1030CC00000C121C123C000000030202020E121231
:1030DC00120E000000000000001C1202120C000076
:1030EC0000181010101C1212123C000000000000FE
:1030FC00000C121E021C000000182404041E040400
:10310C00041E000000000000003C120C021C221CDB
:10311C0000030202020E1212123700000004040017
:10312C0000060404040E000000080800000C080847
:10313C000808080700030202021A0A060A13000014
:10314C000007040404040404041F00000000000031
:10315C00000F15151515000000000000000F1212CD
:10316C001237000000000000000C1212120C0000BC
:10317C0000000000000F1212120E020700000000E7
:10318C00001C1212121C103800000000001B06025A
:10319C000207000000000000001E020C101E0000C0
:1031AC0000000004041E0404041C000000000000C5
:1031BC00001B1212123C000000000000001B0A0A47
:1031CC0004040000000000000015150E0A0A00009F
:1031DC0000000000001B0A040A1B00000000000095
:1031EC00003312120C08040300000000001E080437
:1031FC00041E000018080808080C08080808180025
:10320C000808080808080808080808080604040440
:10321C000408040404040600160900000000000061
:10322C000000000000000000000000000000000092
:10323C00000000000000000808080808080800004A
:10324C001818000000486C24120000000000000058
:10325C00000000000000002424247F1212127F12B0
:10326C00121200000000081C2A2A0A0C1828282A0E
:10327C002A1C080800000022251515152A5854543C
:10328C00542200000000000C1212120A762529119B
:10329C00916E000000060604030000000000000010
:1032AC000000000000402010100808080808081052
:1032BC001020400000020408081010101010100814
:1032CC00080402000000000008086B1C1C6B0808B6
:1032DC000000000000000000080808087F0808082B
:1032EC0008000000000000000000000000000000CA
:1032FC00060604030000000000000000FE000000B1
:10330C0000000000000000000000000000000000B1
:10331C000606000000008040402020101008080421
:10332C00040202000000001824424242424242427F
:10333C0024180000000000080E08080808080808F7
:10334C00083E00000000003C4242422020100804CD
:10335C00427E00000000003C4242201820404042C7
:10336C00221C0000000000203028242422227E2071
:10337C00207800000000007E0202021A2640404223
:10338C00221C0000000000382402021A264242428D
:10339C00241800000000007E2222101008080808E3
:1033AC00080800000000003C42424224182442421B
:1033BC00423C000000000018244242426458404045
:1033CC00241C000000000000000018180000000081
:1033DC0018180000000000000000000800000000A9
:1033EC000008080400000040201008040204081023
:1033FC00204000000000000000007F0000007F0063
:10340C0000000000000000020408102040201008FA
:10341C00040200000000003C424246402010100014
:10342C00181800000000001C225A555555552D4205
:10343C00221C00000000000808181414243C22422E
:10344C0042E700000000001F2222221E22424242BC
:10345C00221F00000000007C4242010101010142D8
:10346C00221C00000000001F224242424242424203
:10347C00221F00000000003F4212121E12120242D4
:10348C00423F00000000003F4212121E12120202C4
:10349C00020700000000003C2222010101712122E0
:1034AC00221C0000000000E7424242427E4242429F
:1034BC0042E700000000003E080808080808080859
:1034CC00083E00000000007C1010101010101010AE
:1034DC001010110F0000007722120A0E0A1212228D
:1034EC002277000000000007020202020202020220
:1034FC00427F000000000077363636362A2A2A2A08
:10350C002A6B0000000000E346464A4A52525262BF
:10351C00624700000000001C2241414141414141F1
:10352C00221C00000000003F424242423E020202C6
:10353C00020700000000001C2241414141414D5353
:10354C00321C60000000003F4242423E1212222216
:10355C0042C700000000007C424202041820404296
:10356C00423E00000000007F4908080808080808CF
:10357C00081C0000000000E7424242424242424224
:10358C00423C0000000000E742422224241414189C
:10359C00080800000000006B49494949555536227E
:1035AC0022220000000000E74224241818182424CA
:1035BC0042E70000000000772222141408080808D3
:1035CC00081C00000000007E21201010080404429A
:1035DC00423F000000780808080808080808080896
:1035EC0008087800000002020404080808101020E3
:1035FC0020204040001E1010101010101010101041
:10360C0010101E00003844000000000000000000F4
:10361C00000000000000000000000000000000009E
:10362C00000000FF00060800000000000000000081
:10363C0000000000000000000000003C4278444202
:10364C0042FC0000000000030202021A2642424221
:10365C00261A00000000000000000038440202029C
:10366C004438000000000060404040784442424230
:10367C0064D80000000000000000003C427E020202
:10368C00423C0000000000F08808087E080808088A
:10369C00083E0000000000000000007C22221C02FA
:1036AC003C42423C000000030202023A46424242C3
:1036BC0042E700000000000C0C00000E080808088F
:1036CC00083E000000000030300000382020202090
:1036DC002020221E0000000302020272120A16129F
:1036EC00227700000000000E0808080808080808E7
:1036FC00083E0000000000000000007F92929292B1
:10370C0092B70000000000000000003B464242421D
:10371C0042E70000000000000000003C4242424230
:10372C00423C0000000000000000001B2642424208
:10373C00221E0207000000000000007844424242B2
:10374C00447840E000000000000000774C040404C2
:10375C00041F0000000000000000007C42023C40FE
:10376C00423E0000000000000008083E080808085F
:10377C00083000000000000000000063424242429A
:10378C0062DC000000000000000000E7422424146A
:10379C000808000000000000000000EB49495555E6
:1037AC0022220000000000000000007624181818E7
:1037BC00246E000000000000000000E742242414E6
:1037CC0018080807000000000000007E22100808FE
:1037DC00447E000000C0202020202010202020202B
:1037EC002020C0001010101010101010101010100D
:1037FC00101010100006080808080810080808081F
:10380C00080806000C32C200000000000000000096
:10381C00000000000000000000000000000000009C
:10382C00000000000000000000000000000000008C
:10383C00000000000000000000000000000000007C
:10384C0000000000000000000000000060006000AC
:10385C0060006000600060006000400020002000FC
:10386C00200000000000000060006000600000000C
:10387C0000000000000000006006600630039801A4
:10388C008800440000000000000000000000000060
:10389C00000000000000000000000000000000001C
:1038AC0000000000000000000000000010021002E8
:1038BC0010021002FE07FE070802080108010801A9
:1038CC000801FE07FE0704010401040104010000C5
:1038DC000000000000000000000040004000F0016B
:1038EC0058034C03CC034C0058007000E000C0019E
:1038FC00C00140034C035C034C034801F000400042
:10390C004000000000000000000000000E010A0151
:10391C00910091009100510051003A00AE03A002B9
:10392C0050045004480448044804840284030000F2
:10393C0000000000000000000000000038006C00D7
:10394C006C006C006C006C002C0098071C011A01B8
:10395C00330133016301E300C308C6093C070000CF
:10396C0000000000000000000C001C001000100003
:10397C00080004000000000000000000000000002F
:10398C00000000000000000000000000000000002B
:10399C000000000000000000000400020001800094
:1039AC00800040004000200020002000200020006B
:1039BC002000200040004000800080000001000238
:1039CC0000040000000000000200040008001000C9
:1039DC00100020002000400040004000400040004B
:1039EC0040004000200020001000100008000400DF
:1039FC0002000000000000000000000000000000B9
:103A0C004000C0004000460C4E0FD001F0015E0F8C
:103A1C00460C400040004000000000000000000088
:103A2C00000000000000000000000000000000008A
:103A3C00000040004000400040004000FE0F4000ED
:103A4C00400040004000400000000000000000006A
:103A5C00000000000000000000000000000000005A
:103A6C00000000000000000000000000000000004A
:103A7C0000000000000000000C001C0010001000F2
:103A8C00080004000000000000000000000000001E
:103A9C00000000000000000000000000FE07000015
:103AAC00000000000000000000000000000000000A
:103ABC0000000000000000000000000000000000FA
:103ACC0000000000000000000000000000000000EA
:103ADC0000000000000000001C001C001C00000086
:103AEC0000000000000000000004000600020003BB
:103AFC0000010001800080004000400060002000B8
:103B0C00200010001000080008000C000400060043
:103B1C000200000000000000000000000000F000A7
:103B2C0098010C030C030606060606060606060696
:103B3C000606060606060C030C039801F0000000AE
:103B4C000000000000000000000000000000400029
:103B5C007C0060006000600060006000600060003D
:103B6C00600060006000600060006000FC0300000A
:103B7C000000000000000000000000000000F80041
:103B8C008401020306030603000300018001C00048
:103B9C00600020001000080204020602FE03000070
:103BAC000000000000000000000000000000780091
:103BBC00C6008601860180018001C0007000800172
:103BCC00000100030003060306038601F800000051
:103BDC000000000000000000000000000000800158
:103BEC008001C001A001A00190018801880184011D
:103BFC008201FE0F8001800180018001E00700003E
:103C0C000000000000000000000000000000FC03A9
:103C1C0004000400040004000400F4008C010403FC
:103C2C00000300030603060382018401F800000070
:103C3C000000000000000000000000000000E00197
:103C4C0018030C030C0004000600E60116030E0614
:103C5C0006060606060604060C021803F000000011
:103C6C000000000000000000000000000000F80749
:103C7C000C060402040100010001800080004000D9
:103C8C0040004000600060006000600060000000C8
:103C9C000000000000000000000000000000F8011F
:103CAC000C030606060606060C021C03F000C801EF
:103CBC000C0306060606060606060C03F0010000B9
:103CCC000000000000000000000000000000F000F8
:103CDC000C010C03060206060606060606078C06F1
:103CEC0078060006000300030C018C01780000002C
:103CFC0000000000000000000000000000000000B8
:103D0C000000000000000000E000E000E000000007
:103D1C000000000000000000E000E000E0000000F7
:103D2C000000000000000000000000000000000087
:103D3C0000000000000000006000600000000000B7
:103D4C000000000000000000000060006000400067
:103D5C002000200000000000000000000004000211
:103D6C000001800040002000100008000400080042
:103D7C001000200040008000000100020004000040
:103D8C000000000000000000000000000000000027
:103D9C000000000000000000FE0700000000000012
:103DAC00FE07000000000000000000000000000002
:103DBC0000000000000000000000000004000800EB
:103DCC0010002000400080000001000200040002EE
:103DDC0000018000400020001000080004000000DA
:103DEC000000000000000000000000000000E003E4
:103DFC001806040C040C0C0C0C0C00078001400081
:103E0C004000400000000000E000E000E000000086
:103E1C00000000000000000000000000E00018039B
:103E2C000C02CC0564056605A605B604B604B604FA
:103E3C00B604B602E4010C040C021803F0000000F6
:103E4C000000000000000000000000000000600006
:103E5C0060005000D000900090008800880108019C
:103E6C00F801040304030402020202060F0F00000F
:103E7C000000000000000000000000000000FE0038
:103E8C008C030C030C030C030C038C01FC000C03C3
:103E9C000C020C060C060C060C060C03FE010000B2
:103EAC000000000000000000000000000000E00323
:103EBC0018030C060C040404060006000600060099
:103ECC000600060006040C040C021803F0000000A7
:103EDC0000000000000000000000000000007F0057
:103EEC008C010C030C030C060C060C060C060C06C1
:103EFC000C060C060C060C030C038C017F00000056
:103F0C000000000000000000000000000000FF03A3
:103F1C00060306040604060086008600FE008600E2
:103F2C00860086000600060406040602FF03000055
:103F3C000000000000000000000000000000FF0373
:103F4C00060306040604060086008600FE008600B2
:103F5C008600860006000600060006001F00000012
:103F6C000000000000000000000000000000F00055
:103F7C0018010C020C0204020600060006000600E2
:103F8C00C60F060306030C030C031803F000000015
:103F9C0000000000000000000000000000000F0FF7
:103FAC00060606060606060606060606FE070606AC
:103FBC000606060606060606060606060F0F00008F
:103FCC000000000000000000000000000000FC03E6
:103FDC0060006000600060006000600060006000D5
:103FEC00600060006000600060006000FC03000086
:103FFC000000000000000000000000000000F807B6
:10400C00C000C000C000C000C000C000C000C000A4
:10401C00C000C000C000C000C000C000C000C6008E
:10402C0066003C0000000000000000000000CF0310
:10403C008601C60046002600160036002E006E00D3
:10404C004600C60086008601060106038F070000A5
:10405C0000000000000000000000000000001F0035
:10406C000600060006000600060006000600060014
:10407C00060006000600060406040602FF03000004
:10408C000000000000000000000000000000070716
:10409C00860386038E038E034E034E034A035A0394
:1040AC005A033A0332033203320312038707000028
:1040BC0000000000000000000000000000008E0F57
:1040CC000C021C021C02340234026402640244021C
:1040DC00C402840284038403040304031F0200004B
:1040EC000000000000000000000000000000F000D4
:1040FC0098010C030C0206060606060606060606C2
:10410C000606060606060C020C039801F0000000D9
:10411C000000000000000000000000000000FF0094
:10412C000603060606060606060606068603FE00B7
:10413C000600060006000600060006001F00000030
:10414C000000000000000000000000000000F00073
:10415C0098010C030C020606060606060606060661
:10416C000606060676064C02CC039801F000800782
:10417C000003000000000000000000000000FF0130
:10418C00060306060606060606060603FE0046009D
:10419C00C600860086010603060306060F0E000005
:1041AC000000000000000000000000000000F80209
:1041BC000C030602060206000E003C00F800E003A9
:1041CC00800300070206020606060C03F00100003D
:1041DC000000000000000000000000000000FE07CE
:1041EC0062046108610860006000600060006000AB
:1041FC00600060006000600060006000F80100007A
:10420C0000000000000000000000000000001E077D
:10421C000C020C020C020C020C020C020C020C0222
:10422C000C020C020C020C020C021801F000000033
:10423C0000000000000000000000000000000F075C
:10424C000602040104010C010C018800880098008E
:10425C00980050005000700030002000200000003A
:10426C000000000000000000000000000000F70E3D
:10427C00620442044604460464026402E402E4025A
:10428C009C029C019801980188018800880000001C
:10429C0000000000000000000000000000009E076D
:1042AC000C01080118019000B000600020006000B3
:1042BC006000D00090008801080104038E07000004
:1042CC0000000000000000000000000000000F0FC4
:1042DC00060404020C0208011801B800B0007000BA
:1042EC00600060006000600060006000F801000089
:1042FC000000000000000000000000000000FC07AF
:10430C000C020603020180018000400040002000E6
:10431C0020001000180008040C040402FE03000026
:10432C000000000000000000E0032000200020003E
:10433C002000200020002000200020002000200071
:10434C002000200020002000200020002000200061
:10435C00E003000000000000000000000400040066
:10436C000800080010001000100020002000400081
:10437C004000C0008000800000010001000200022B
:10438C0000020004000000007C00400040004000DF
:10439C004000400040004000400040004000400011
:1043AC004000400040004000400040004000400001
:1043BC007C0000000000600090000801000000007C
:1043CC0000000000000000000000000000000000E1
:1043DC0000000000000000000000000000000000D1
:1043EC0000000000000000000000000000000000C1
:1043FC0000000000000000000000000000000000B1
:10440C0000000000000000000000000000000000A0
:10441C000000FF0F0000000018006000000000000A
:10442C000000000000000000000000000000000080
:10443C000000000000000000000000000000000070
:10444C000000000000000000000000000000000060
:10445C000000000000000000F0010C030C0300033E
:10446C00E0031C030E03060306038E0B7C0E0000F8
:10447C0000000000000000000000000008000E001A
:10448C000C000C000C000C00CC013C031C060C06B0
:10449C000C060C060C060C060C021C03E4010000B6
:1044AC000000000000000000000000000000000000
:1044BC000000000000000000F0008C018C0186015F
:1044CC0006000600060006020C020C01F0000000BB
:1044DC000000000000000000000000000002C0030B
:1044EC00000300030003000378038C030C03060392
:1044FC00060306030603060304038C077801000079
:10450C00000000000000000000000000000000009F
:10451C000000000000000000E001180308020C0677
:10452C000C06FC070C000C0018041802E00100003B
:10453C000000000000000000000000000000C003AC
:10454C006006300630003000FE01300030003000D4
:10455C00300030003000300030003000FC01000032
:10456C00000000000000000000000000000000003F
:10457C000000000000000000F007D8068C018C0140
:10458C008C019801F8000C00FC00CC030603060318
:10459C008E03F800000000000000000008000E0070
:1045AC000C000C000C000C00EC011C030C030C03A5
:1045BC000C030C030C030C030C030C039E070000F0
:1045CC00000000000000000000000000000060007F
:1045DC0060000000000040007C0060006000600093
:1045EC00600060006000600060006000FC03000080
:1045FC000000000000000000000000000000C001EE
:10460C00C001000000000001F00180018001800168
:10461C008001800180018001800180018001800186
:10462C00CC007C00000000000000000008000E0020
:10463C000C000C000C000C008C038C008C004C004B
:10464C006C005C008C008C010C010C039E070000BC
:10465C0000000000000000000000000040007C0092
:10466C00600060006000600060006000600060003E
:10467C00600060006000600060006000FC030000EF
:10468C00000000000000000000000000000000001E
:10469C0000000000000000003707EE066606660604
:1046AC00660666066606660666066606FF0F000068
:1046BC0000000000000000000000000000000000EE
:1046CC000000000000000000EE011C030C030C03B2
:1046DC000C030C030C030C030C030C039E070000CF
:1046EC0000000000000000000000000000000000BE
:1046FC000000000000000000F00098010C0306060A
:10470C0006060606060606060C030C03F00000005F
:10471C00000000000000000000000000000000008D
:10472C000000000000000000EE011C030C060C064B
:10473C000C060C060C060C060C031C03EC010C00FE
:10474C000C003E0000000000000000000000000013
:10475C00000000000000000078028C030C0306032C
:10476C00060306030603060304038C037803000305
:10477C000003C00700000000000000000000000063
:10478C0000000000000000009F03580638061800C7
:10479C00180018001800180018001800FF0000007E
:1047AC0000000000000000000000000000000000FD
:1047BC000000000000000000F0031C030C020C02BF
:1047CC003800F000C003040304038C03FC01000058
:1047DC0000000000000000000000000000000000CD
:1047EC002000200030003000FE013000300030008E
:1047FC00300030003000300030023002E0010000A8
:10480C00000000000000000000000000000000009C
:10481C0000000000000008028E030C030C030C03C4
:10482C000C030C030C030C030C039C077801000015
:10483C00000000000000000000000000000000006C
:10484C0000000000000000001E070C020801080117
:10485C0018019000B000B000600060002000000063
:10486C00000000000000000000000000000000003C
:10487C000000000000000000F70E62044604640211
:10488C006402EC029C019801980198010800000058
:10489C00000000000000000000000000000000000C
:1048AC000000000000000000BC0718011001B0005F
:1048BC0060006000E0009000080108039E07000003
:1048CC0000000000000000000000000000000000DC
:1048DC0000000000000000009E070801080108010C
:1048EC0090009000B000600060006000200020008C
:1048FC0024001C000000000000000000000000006C
:10490C000000000000000000FC018401C400440011
:10491C00600020003000180208020C03FC010000AB
:10492C0000000000000000000003800080008000F8
:10493C00800080008000800080004000200040004B
:10494C00800080008000800080008000800080005B
:10495C0000030000400040004000400040004000C8
:10496C00400040004000400040004000400040003B
:10497C00400040004000400040004000400040002B
:10498C0040004000000000000C001000100010005F
:10499C00100010001000100010002000400020003B
:1049AC00100010001000100010001000100010007B
:1049BC000C00000000001C002204C2048003000054
:1049CC0000000000000000000000000000000000DB
:1049DC0000000000000000000000000000000000CB
:1049EC0000000000000000000000000000000000BB
:1049FC0000000000000000000000000000000000AB
:104A0C00000000000000000000000000000000009A
:104A1C00000000000000000000000000000000008A
:104A2C000000000000000000000000000000C001B9
:104A3C00C001C001C001C001C001C00180008000E4
:104A4C0080008000800080008000000000000000DA
:104A5C0000008001C003C0038001000000000000C2
:104A6C0000000000000000000000E01CE01CF01E34
:104A7C00700E3807180308018400000000000000C5
:104A8C00000000000000000000000000000000001A
:104A9C00000000000000000000000000000000000A
:104AAC0000000000000000000000000000000000FA
:104ABC0020102010201020102010FE7FFE7F1008E8
:104ACC00100810081008100810081008FE7FFE7F50
:104ADC00080408040804080408040000000000008E
:104AEC0000000000000000000000000000010001B8
:104AFC00C007601910311831183918393801700194
:104B0C00E001C0038007000F001D003900311C318B
:104B1C001C310C310C11180DE007000100010001D3
:104B2C000000000000000000000000000000000079
:104B3C001C1036186308630C63046304630263027D
:104B4C006301361D9C378022806340634063206381
:104B5C002063306310221836081C0000000000008F
:104B6C000000000000000000000000000000000039
:104B7C00F00098018C018C018C018C018C00CC0014
:104B8C007800183E1C083608320863046304C3041A
:104B9C00C303834306438E26781C000000000000EC
:104BAC00000000000000000000001C003C003C0065
:104BBC003000300010000C00060000000000000067
:104BCC0000000000000000000000000000000000D9
:104BDC0000000000000000000000000000000000C9
:104BEC000000000000000000000000400020001049
:104BFC000008000C00040006000300030003800101
:104C0C00800180018001800180018001800100030E
:104C1C000003000300060006000C00080010002032
:104C2C00004000000000000000000200040008002A
:104C3C001000300020006000C000C000C0008001E7
:104C4C008001800180018001800180018001C00011
:104C5C00C000C000600060003000100008000400BC
:104C6C000200000000000000000000000000000036
:104C7C000000000000018003800300011C713C79DE
:104C8C00783DC0070001C007783D3C791C710001DC
:104C9C008003800380010000000000000000000081
:104CAC0000000000000000000000000000000000F8
:104CBC0000000000000000010001000100010001E3
:104CCC0000010001FC7F0001000100010001000156
:104CDC0000010001000000000000000000000000C6
:104CEC0000000000000000000000000000000000B8
:104CFC0000000000000000000000000000000000A8
:104D0C000000000000000000000000000000000097
:104D1C00000000001C003C003C0030003000100083
:104D2C000C00060000000000000000000000000065
:104D3C000000000000000000000000000000000067
:104D4C0000000000FE7F00000000000000000000DA
:104D5C000000000000000000000000000000000047
:104D6C000000000000000000000000000000000037
:104D7C000000000000000000000000000000000027
:104D8C000000000000000000000000000000000017
:104D9C00000018003C003C0018000000000000005F
:104DAC000000000000000000000000400060002037
:104DBC000030001000180008000C0004000600026F
:104DCC000003000180018000C00040006000200052
:104DDC0030001000180008000C000400060002004F
:104DEC0000000000000000000000000000000000B7
:104DFC00C007600C30181830183018200C600C608C
:104E0C000C600C600C600C600C600C600C6018206A
:104E1C00183018303018600CC0070000000000007B
:104E2C000000000000000000000000000000000076
:104E3C0000018001F8018001800180018001800166
:104E4C00800180018001800180018001800180014E
:104E5C00800180018001C003F81F000000000000E9
:104E6C000000000000000000000000000000000036
:104E7C00E007101C0818043004300C300C300030E3
:104E8C0000180008000400020001800040002020EF
:104E9C00102008200430FC1FFC1F00000000000044
:104EAC0000000000000000000000000000000000F6
:104EBC00E003180E0C0C0C180C180C180018000C35
:104ECC000006C003000E00180010003000300C303B
:104EDC000C300C100C18180CE00300000000000043
:104EEC0000000000000000000000000000000000B6
:104EFC00000C000E000E000F800E800E400E600E97
:104F0C00200E100E100E080E040E040EFE7F000E66
:104F1C00000E000E000E000E000EC07F0000000000
:104F2C000000000000000000000000000000000075
:104F3C00F03FF03F10001000100008000800C807F8
:104F4C00280C1818081000300030003000300C30DD
:104F5C000C3004180418080CF003000000000000CA
:104F6C000000000000000000000000000000000035
:104F7C00800FC010203010301800180008000C00F2
:104F8C008C0F6C183C301C600C600C600C600C605E
:104F9C001860182030306018C007000000000000B6
:104FAC0000000000000000000000000000000000F5
:104FBC00F83FF83F1C100C0804080404000400021D
:104FCC000002000100010001800080008000C00090
:104FDC00C000C000C000C000C00000000000000005
:104FEC0000000000000000000000000000000000B5
:104FFC00E007300C18180C300C300C301C30381802
:10500C007008E007B007180E0C1C06380630063086
:10501C00063006300C18180CE003000000000000ED
:10502C000000000000000000000000000000000074
:10503C00E00318040C080C18061006300630063075
:10504C00063006380C3C1836F031003000180018C9
:10505C0000180C0C0C060C03F00100000000000002
:10506C000000000000000000000000000000000034
:10507C0000000000000000000000000000008001A3
:10508C00C003C0038001000000000000000000000D
:10509C0000008001C003C00380010000000000007C
:1050AC0000000000000000000000000000000000F4
:1050BC000000000000000000000000000000C00024
:1050CC00C000000000000000000000000000000014
:1050DC00000000000000C000C00080008000400004
:1050EC004000000000000000000000000000002054
:1050FC00001000080004000600038001C0006000DE
:10510C00300018000C00180030006000C000800156
:10511C00000300060004000800100020000000003E
:10512C000000000000000000000000000000000073
:10513C000000000000000000000000000000FE7FE6
:10514C0000000000000000000000FE7F00000000D6
:10515C000000000000000000000000000000000043
:10516C00000000000000000000000000000004002F
:10517C000800100020006000C00080010003000641
:10518C00000C001800300018000C00060003800111
:10519C00C0006000200010000800040000000000A7
:1051AC000000000000000000000000000000C0072C
:1051BC003018083008600C601C601C601C600030EB
:1051CC00001C0006000180008000800080000000B0
:1051DC0000008001C003C00380010000000000003B
:1051EC0000000000000000000000000000000000B3
:1051FC00C0076018103018200C2F8C4D864CC64CF4
:10520C00C64C664C66446644662666266615CC1CFF
:10521C000C40082018303018C007000000000000B7
:10522C000000000000000000000000000000000171
:10523C00C001C001C0014001600320032003200312
:10524C003006100610061006F80F080C080C080C97
:10525C000C0C0418041806181F7C00000000000039
:10526C000000000000000000000000000000000032
:10527C00FE07181C18381830183018301830181849
:10528C00180CF807181818301820186018601860D7
:10529C001860186018301818FE0F0000000000008D
:1052AC0000000000000000000000000000000000F2
:1052BC00C0276038103018200C400C400400060049
:1052CC0006000600060006000600060006000C405C
:1052DC000C400C2018303018C007000000000000F3
:1052EC0000000000000000000000000000000000B2
:1052FC00FE03180E18181830183018301860186083
:10530C001860186018601860186018601860183001
:10531C00183018101818180EFE03000000000000BA
:10532C000000000000000000000000000000000071
:10533C00FE3F18301820186018401800180818087C
:10534C00180CF80F180C180818081800180018007A
:10535C001840184018201830FE3F000000000000D4
:10536C000000000000000000000000000000000031
:10537C00FE7F1870184018C01880180018101810EC
:10538C001818F81F18181810181018001800180002
:10539C0018001800180018007E0000000000000023
:1053AC0000000000000000000000000000000000F1
:1053BC00C013701C101018100C200C2004000600D8
:1053CC00060006000600060006FC063006300C300F
:1053DC000C30183018303008C007000000000000F6
:1053EC0000000000000000000000000000000000B1
:1053FC003F7E0C180C180C180C180C180C180C18E8
:10540C000C180C18FC1F0C180C180C180C180C1879
:10541C000C180C180C180C183F7E00000000000033
:10542C000000000000000000000000000000000070
:10543C00F81F8001800180018001800180018001C2
:10544C008001800180018001800180018001800148
:10545C008001800180018001F81F00000000000025
:10546C000000000000000000000000000000000030
:10547C00E07F000600060006000600060006000697
:10548C0000060006000600060006000600060006E0
:10549C000006000600060006000600060E060E03B7
:1054AC008E01FC0000000000000000000000000065
:1054BC007E7C181818081804180618021801980190
:1054CC009801D801B803380318071806180E180CE1
:1054DC00181C1818183018307EFC00000000000052
:1054EC0000000000000000000000000000000000B0
:1054FC007E0018001800180018001800180018007A
:10550C0018001800180018001800180018001800CF
:10551C001840184018201830FE3F00000000000012
:10552C00000000000000000000000000000000006F
:10553C001FF81C381C381C381C3C343434343434BC
:10554C00343674326432643264326431C431C431FE
:10555C00C431C430C43084309FFC00000000000013
:10556C00000000000000000000000000000000002F
:10557C001F7C1C103C103410341074106410E41098
:10558C00C410C41184118413041304170416041ECC
:10559C00041C041C041C04181F180000000000004C
:1055AC0000000000000000000000000000000000EF
:1055BC00C003300C181808100C300C300660066054
:1055CC0006600660066006600660066006600C20D9
:1055DC000C3008101818300CC0030000000000003C
:1055EC0000000000000000000000000000000000AF
:1055FC00FE0F1818183018601860186018601860C2
:10560C0018301818F80F1800180018001800180097
:10561C0018001800180018007E00000000000000A0
:10562C00000000000000000000000000000000006E
:10563C00C003300C18180C100C300C2006600660DF
:10564C000660066006600660066006600660E4613F
:10565C002C331C321816300EC007004C007C00385E
:10566C00000000000000000000000000000000002E
:10567C00FE07181C18381830183018301830181845
:10568C00180CF80798031803180718061806180EB4
:10569C00180C180C181C18187E780000000000005C
:1056AC0000000000000000000000000000000000EE
:1056BC00E027303818300C200C200C000C0018009F
:1056CC007800E003800F001E00380070006004605A
:1056DC000460086018303818C80F00000000000083
:1056EC0000000000000000000000000000000000AE
:1056FC00FC3F8C21846182418241800180018001C8
:10570C008001800180018001800180018001800185
:10571C008001800180018001E00700000000000092
:10572C00000000000000000000000000000000006D
:10573C003F7C0C100C100C100C100C100C100C10DE
:10574C000C100C100C100C100C100C100C100C106D
:10575C000C100C1008083804E003000000000000D6
:10576C00000000000000000000000000000000002D
:10577C003EF818201820182030103010301030103F
:10578C00600860086008E00CC004C004C00480031A
:10579C008003800380030001000100000000000072
:1057AC0000000000000000000000000000000000ED
:1057BC00DFF38661862186218C210C218C238C13AE
:1057CC008C138C134C1358125816580E380E380E66
:1057DC00380E300C100410041004000000000000FF
:1057EC0000000000000000000000000000000000AD
:1057FC007E3E180838083004300470026002E00164
:10580C00C001C00180018003400340072006200630
:10581C00100C100C081808183E7C0000000000004A
:10582C00000000000000000000000000000000006C
:10583C007E7C1C10181018083008300C70046004A2
:10584C006002C002C002C0018001800180018001A1
:10585C008001800180018001E00700000000000051
:10586C00000000000000000000000000000000002C
:10587C00F83F18180818040C040E00060007000363
:10588C0080038001C001C000E000600070003000A7
:10589C00382018201C100C18FE1F000000000000FF
:1058AC0000000000000000000000C03F400040006D
:1058BC0040004000400040004000400040004000DC
:1058CC0040004000400040004000400040004000CC
:1058DC004000400040004000400040004000C03FFD
:1058EC0000000000000000000000000000000800A4
:1058FC00180018001000300020006000600040000C
:10590C00C00080008001800100010003000200063D
:10591C0000060004000C00080018001800100030ED
:10592C0000200000000000000000FC030002000248
:10593C00000200020002000200020002000200024B
:10594C00000200020002000200020002000200023B
:10595C000002000200020002000200020002FC032E
:10596C00000000000000000000008007C0062008B6
:10597C0010100000000000000000000000000000FB
:10598C00000000000000000000000000000000000B
:10599C0000000000000000000000000000000000FB
:1059AC0000000000000000000000000000000000EB
:1059BC0000000000000000000000000000000000DB
:1059CC0000000000000000000000000000000000CB
:1059DC0000000000000000000000000000000000BB
:1059EC000000FFFF0000000000007800C000000174
:1059FC00000000000000000000000000000000009B
:105A0C00000000000000000000000000000000008A
:105A1C00000000000000000000000000000000007A
:105A2C00000000000000000000000000000000006A
:105A3C000000000000000000000000000000F00367
:105A4C0018060C0C0C0C000C800F700C1C0C0C0CA5
:105A5C00060C060C064C0C4FF83800000000000039
:105A6C00000000000000000000000000000010001A
:105A7C001E00180018001800180018001800180F45
:105A8C00D8183830386018601860186018601860C2
:105A9C001860182038307818C80700000000000083
:105AAC0000000000000000000000000000000000EA
:105ABC000000000000000000000000000000C00713
:105ACC00700C181818180C180C000C000C000C009A
